{
  "contractName": "FeeApprover",
  "abi": [
    {
      "anonymous": false,
      "inputs": [
        {
          "indexed": true,
          "internalType": "address",
          "name": "previousOwner",
          "type": "address"
        },
        {
          "indexed": true,
          "internalType": "address",
          "name": "newOwner",
          "type": "address"
        }
      ],
      "name": "OwnershipTransferred",
      "type": "event"
    },
    {
      "inputs": [
        {
          "internalType": "address",
          "name": "",
          "type": "address"
        }
      ],
      "name": "discountFrom",
      "outputs": [
        {
          "internalType": "uint256",
          "name": "",
          "type": "uint256"
        }
      ],
      "stateMutability": "view",
      "type": "function"
    },
    {
      "inputs": [
        {
          "internalType": "address",
          "name": "",
          "type": "address"
        }
      ],
      "name": "discountTo",
      "outputs": [
        {
          "internalType": "uint256",
          "name": "",
          "type": "uint256"
        }
      ],
      "stateMutability": "view",
      "type": "function"
    },
    {
      "inputs": [
        {
          "internalType": "address",
          "name": "",
          "type": "address"
        }
      ],
      "name": "feeBlackList",
      "outputs": [
        {
          "internalType": "uint256",
          "name": "",
          "type": "uint256"
        }
      ],
      "stateMutability": "view",
      "type": "function"
    },
    {
      "inputs": [],
      "name": "feePercentX100",
      "outputs": [
        {
          "internalType": "uint8",
          "name": "",
          "type": "uint8"
        }
      ],
      "stateMutability": "view",
      "type": "function"
    },
    {
      "inputs": [],
      "name": "lastTotalSupplyOfLPTokens",
      "outputs": [
        {
          "internalType": "uint256",
          "name": "",
          "type": "uint256"
        }
      ],
      "stateMutability": "view",
      "type": "function"
    },
    {
      "inputs": [],
      "name": "owner",
      "outputs": [
        {
          "internalType": "address",
          "name": "",
          "type": "address"
        }
      ],
      "stateMutability": "view",
      "type": "function"
    },
    {
      "inputs": [],
      "name": "renounceOwnership",
      "outputs": [],
      "stateMutability": "nonpayable",
      "type": "function"
    },
    {
      "inputs": [
        {
          "internalType": "address",
          "name": "newOwner",
          "type": "address"
        }
      ],
      "name": "transferOwnership",
      "outputs": [],
      "stateMutability": "nonpayable",
      "type": "function"
    },
    {
      "inputs": [],
      "name": "uniswapFactory",
      "outputs": [
        {
          "internalType": "contract IUniswapV2Factory",
          "name": "",
          "type": "address"
        }
      ],
      "stateMutability": "view",
      "type": "function"
    },
    {
      "inputs": [
        {
          "internalType": "address",
          "name": "_HCAddress",
          "type": "address"
        },
        {
          "internalType": "address",
          "name": "_uniswapFactory",
          "type": "address"
        },
        {
          "internalType": "address",
          "name": "_uniswapRouter",
          "type": "address"
        },
        {
          "internalType": "address",
          "name": "_liquidVault",
          "type": "address"
        }
      ],
      "name": "initialize",
      "outputs": [],
      "stateMutability": "nonpayable",
      "type": "function"
    },
    {
      "inputs": [],
      "name": "unPause",
      "outputs": [],
      "stateMutability": "nonpayable",
      "type": "function"
    },
    {
      "inputs": [
        {
          "internalType": "uint8",
          "name": "_feeMultiplier",
          "type": "uint8"
        }
      ],
      "name": "setFeeMultiplier",
      "outputs": [],
      "stateMutability": "nonpayable",
      "type": "function"
    },
    {
      "inputs": [
        {
          "internalType": "address",
          "name": "_address",
          "type": "address"
        },
        {
          "internalType": "uint256",
          "name": "feeAmount",
          "type": "uint256"
        }
      ],
      "name": "setFeeBlackList",
      "outputs": [],
      "stateMutability": "nonpayable",
      "type": "function"
    },
    {
      "inputs": [
        {
          "internalType": "address",
          "name": "_address",
          "type": "address"
        },
        {
          "internalType": "uint256",
          "name": "discount",
          "type": "uint256"
        }
      ],
      "name": "setFeeDiscountTo",
      "outputs": [],
      "stateMutability": "nonpayable",
      "type": "function"
    },
    {
      "inputs": [
        {
          "internalType": "address",
          "name": "_address",
          "type": "address"
        },
        {
          "internalType": "uint256",
          "name": "discount",
          "type": "uint256"
        }
      ],
      "name": "setFeeDiscountFrom",
      "outputs": [],
      "stateMutability": "nonpayable",
      "type": "function"
    },
    {
      "inputs": [
        {
          "internalType": "address",
          "name": "sender",
          "type": "address"
        },
        {
          "internalType": "address",
          "name": "recipient",
          "type": "address"
        },
        {
          "internalType": "uint256",
          "name": "amount",
          "type": "uint256"
        }
      ],
      "name": "calculateAmountsAfterFee",
      "outputs": [
        {
          "internalType": "uint256",
          "name": "transferToAmount",
          "type": "uint256"
        },
        {
          "internalType": "uint256",
          "name": "transferToFeeDistributorAmount",
          "type": "uint256"
        }
      ],
      "stateMutability": "view",
      "type": "function"
    }
  ],
  "bytecode": "0x608060405234801561001057600080fd5b5060006100216100c460201b60201c565b9050806000806101000a81548173ffffffffffffffffffffffffffffffffffffffff021916908373ffffffffffffffffffffffffffffffffffffffff1602179055508073ffffffffffffffffffffffffffffffffffffffff16600073ffffffffffffffffffffffffffffffffffffffff167f8be0079c531659141344cd1fd0a4f28419497f9722a3daafe3b4186f6b6457e060405160405180910390a3506100cc565b600033905090565b6116c9806100db6000396000f3fe608060405234801561001057600080fd5b50600436106101005760003560e01c806392f6193011610097578063f7b188a511610066578063f7b188a514610400578063f81b660e1461040a578063f8c8765e14610458578063fb9df249146104fc57610100565b806392f61930146102f8578063ad08d6c614610316578063f2fde38b14610364578063f782d3f4146103a857610100565b8063715018a6116100d3578063715018a6146102555780638aee4cfe1461025f5780638bdb2afa146102905780638da5cb5b146102c457610100565b806314e9f5c614610105578063301a58011461015d5780633b4e71ad146101e657806352d0598514610207575b600080fd5b6101476004803603602081101561011b57600080fd5b81019080803573ffffffffffffffffffffffffffffffffffffffff169060200190929190505050610554565b6040518082815260200191505060405180910390f35b6101c96004803603606081101561017357600080fd5b81019080803573ffffffffffffffffffffffffffffffffffffffff169060200190929190803573ffffffffffffffffffffffffffffffffffffffff1690602001909291908035906020019092919050505061056c565b604051808381526020018281526020019250505060405180910390f35b6101ee6107bc565b604051808260ff16815260200191505060405180910390f35b6102536004803603604081101561021d57600080fd5b81019080803573ffffffffffffffffffffffffffffffffffffffff169060200190929190803590602001909291905050506107cf565b005b61025d6108df565b005b61028e6004803603602081101561027557600080fd5b81019080803560ff169060200190929190505050610a65565b005b610298610b4b565b604051808273ffffffffffffffffffffffffffffffffffffffff16815260200191505060405180910390f35b6102cc610b71565b604051808273ffffffffffffffffffffffffffffffffffffffff16815260200191505060405180910390f35b610300610b9a565b6040518082815260200191505060405180910390f35b6103626004803603604081101561032c57600080fd5b81019080803573ffffffffffffffffffffffffffffffffffffffff16906020019092919080359060200190929190505050610ba0565b005b6103a66004803603602081101561037a57600080fd5b81019080803573ffffffffffffffffffffffffffffffffffffffff169060200190929190505050610c76565b005b6103ea600480360360208110156103be57600080fd5b81019080803573ffffffffffffffffffffffffffffffffffffffff169060200190929190505050610e81565b6040518082815260200191505060405180910390f35b610408610e99565b005b6104566004803603604081101561042057600080fd5b81019080803573ffffffffffffffffffffffffffffffffffffffff16906020019092919080359060200190929190505050610f7e565b005b6104fa6004803603608081101561046e57600080fd5b81019080803573ffffffffffffffffffffffffffffffffffffffff169060200190929190803573ffffffffffffffffffffffffffffffffffffffff169060200190929190803573ffffffffffffffffffffffffffffffffffffffff169060200190929190803573ffffffffffffffffffffffffffffffffffffffff169060200190929190505050611054565b005b61053e6004803603602081101561051257600080fd5b81019080803573ffffffffffffffffffffffffffffffffffffffff1690602001909291905050506112ef565b6040518082815260200191505060405180910390f35b60086020528060005260406000206000915090505481565b600080600660009054906101000a900460ff16156105d5576040517f08c379a00000000000000000000000000000000000000000000000000000000081526004018080602001828103825260248152602001806116336024913960400191505060405180910390fd5b600080600960008873ffffffffffffffffffffffffffffffffffffffff1673ffffffffffffffffffffffffffffffffffffffff16815260200190815260200160002054111561068a57610683606461067586600960008b73ffffffffffffffffffffffffffffffffffffffff1673ffffffffffffffffffffffffffffffffffffffff1681526020019081526020016000205461130790919063ffffffff16565b61138d90919063ffffffff16565b90506107ab565b6106c260646106b4600460149054906101000a900460ff1660ff168761130790919063ffffffff16565b61138d90919063ffffffff16565b9050600061072c6103e861071e87600860008b73ffffffffffffffffffffffffffffffffffffffff1673ffffffffffffffffffffffffffffffffffffffff1681526020019081526020016000205461130790919063ffffffff16565b61138d90919063ffffffff16565b6107926103e861078488600760008d73ffffffffffffffffffffffffffffffffffffffff1673ffffffffffffffffffffffffffffffffffffffff1681526020019081526020016000205461130790919063ffffffff16565b61138d90919063ffffffff16565b0190508181116107a4578082036107a7565b60005b9150505b808403819250925050935093915050565b600460149054906101000a900460ff1681565b6107d76113d7565b73ffffffffffffffffffffffffffffffffffffffff1660008054906101000a900473ffffffffffffffffffffffffffffffffffffffff1673ffffffffffffffffffffffffffffffffffffffff1614610897576040517f08c379a00000000000000000000000000000000000000000000000000000000081526004018080602001828103825260208152602001807f4f776e61626c653a2063616c6c6572206973206e6f7420746865206f776e657281525060200191505060405180910390fd5b80600960008473ffffffffffffffffffffffffffffffffffffffff1673ffffffffffffffffffffffffffffffffffffffff168152602001908152602001600020819055505050565b6108e76113d7565b73ffffffffffffffffffffffffffffffffffffffff1660008054906101000a900473ffffffffffffffffffffffffffffffffffffffff1673ffffffffffffffffffffffffffffffffffffffff16146109a7576040517f08c379a00000000000000000000000000000000000000000000000000000000081526004018080602001828103825260208152602001807f4f776e61626c653a2063616c6c6572206973206e6f7420746865206f776e657281525060200191505060405180910390fd5b600073ffffffffffffffffffffffffffffffffffffffff1660008054906101000a900473ffffffffffffffffffffffffffffffffffffffff1673ffffffffffffffffffffffffffffffffffffffff167f8be0079c531659141344cd1fd0a4f28419497f9722a3daafe3b4186f6b6457e060405160405180910390a360008060006101000a81548173ffffffffffffffffffffffffffffffffffffffff021916908373ffffffffffffffffffffffffffffffffffffffff160217905550565b610a6d6113d7565b73ffffffffffffffffffffffffffffffffffffffff1660008054906101000a900473ffffffffffffffffffffffffffffffffffffffff1673ffffffffffffffffffffffffffffffffffffffff1614610b2d576040517f08c379a00000000000000000000000000000000000000000000000000000000081526004018080602001828103825260208152602001807f4f776e61626c653a2063616c6c6572206973206e6f7420746865206f776e657281525060200191505060405180910390fd5b80600460146101000a81548160ff021916908360ff16021790555050565b600260009054906101000a900473ffffffffffffffffffffffffffffffffffffffff1681565b60008060009054906101000a900473ffffffffffffffffffffffffffffffffffffffff16905090565b60055481565b610ba86113d7565b73ffffffffffffffffffffffffffffffffffffffff1660008054906101000a900473ffffffffffffffffffffffffffffffffffffffff1673ffffffffffffffffffffffffffffffffffffffff1614610c68576040517f08c379a00000000000000000000000000000000000000000000000000000000081526004018080602001828103825260208152602001807f4f776e61626c653a2063616c6c6572206973206e6f7420746865206f776e657281525060200191505060405180910390fd5b610c7282826113df565b5050565b610c7e6113d7565b73ffffffffffffffffffffffffffffffffffffffff1660008054906101000a900473ffffffffffffffffffffffffffffffffffffffff1673ffffffffffffffffffffffffffffffffffffffff1614610d3e576040517f08c379a00000000000000000000000000000000000000000000000000000000081526004018080602001828103825260208152602001807f4f776e61626c653a2063616c6c6572206973206e6f7420746865206f776e657281525060200191505060405180910390fd5b600073ffffffffffffffffffffffffffffffffffffffff168173ffffffffffffffffffffffffffffffffffffffff161415610dc4576040517f08c379a00000000000000000000000000000000000000000000000000000000081526004018080602001828103825260268152602001806115ec6026913960400191505060405180910390fd5b8073ffffffffffffffffffffffffffffffffffffffff1660008054906101000a900473ffffffffffffffffffffffffffffffffffffffff1673ffffffffffffffffffffffffffffffffffffffff167f8be0079c531659141344cd1fd0a4f28419497f9722a3daafe3b4186f6b6457e060405160405180910390a3806000806101000a81548173ffffffffffffffffffffffffffffffffffffffff021916908373ffffffffffffffffffffffffffffffffffffffff16021790555050565b60076020528060005260406000206000915090505481565b610ea16113d7565b73ffffffffffffffffffffffffffffffffffffffff1660008054906101000a900473ffffffffffffffffffffffffffffffffffffffff1673ffffffffffffffffffffffffffffffffffffffff1614610f61576040517f08c379a00000000000000000000000000000000000000000000000000000000081526004018080602001828103825260208152602001807f4f776e61626c653a2063616c6c6572206973206e6f7420746865206f776e657281525060200191505060405180910390fd5b6000600660006101000a81548160ff021916908315150217905550565b610f866113d7565b73ffffffffffffffffffffffffffffffffffffffff1660008054906101000a900473ffffffffffffffffffffffffffffffffffffffff1673ffffffffffffffffffffffffffffffffffffffff1614611046576040517f08c379a00000000000000000000000000000000000000000000000000000000081526004018080602001828103825260208152602001807f4f776e61626c653a2063616c6c6572206973206e6f7420746865206f776e657281525060200191505060405180910390fd5b6110508282611482565b5050565b83600360006101000a81548173ffffffffffffffffffffffffffffffffffffffff021916908373ffffffffffffffffffffffffffffffffffffffff1602179055508273ffffffffffffffffffffffffffffffffffffffff1663e6a439058373ffffffffffffffffffffffffffffffffffffffff1663ad5c46486040518163ffffffff1660e01b815260040160206040518083038186803b1580156110f757600080fd5b505afa15801561110b573d6000803e3d6000fd5b505050506040513d602081101561112157600080fd5b8101908080519060200190929190505050866040518363ffffffff1660e01b8152600401808373ffffffffffffffffffffffffffffffffffffffff1681526020018273ffffffffffffffffffffffffffffffffffffffff1681526020019250505060206040518083038186803b15801561119a57600080fd5b505afa1580156111ae573d6000803e3d6000fd5b505050506040513d60208110156111c457600080fd5b8101908080519060200190929190505050600160006101000a81548173ffffffffffffffffffffffffffffffffffffffff021916908373ffffffffffffffffffffffffffffffffffffffff160217905550600a600460146101000a81548160ff021916908360ff1602179055506001600660006101000a81548160ff02191690831515021790555061127a600160009054906101000a900473ffffffffffffffffffffffffffffffffffffffff166103e86113df565b6112a8600160009054906101000a900473ffffffffffffffffffffffffffffffffffffffff166103e8611482565b80600460006101000a81548173ffffffffffffffffffffffffffffffffffffffff021916908373ffffffffffffffffffffffffffffffffffffffff16021790555050505050565b60096020528060005260406000206000915090505481565b60008083141561131a5760009050611387565b600082840290508284828161132b57fe5b0414611382576040517f08c379a00000000000000000000000000000000000000000000000000000000081526004018080602001828103825260218152602001806116126021913960400191505060405180910390fd5b809150505b92915050565b60006113cf83836040518060400160405280601a81526020017f536166654d6174683a206469766973696f6e206279207a65726f000000000000815250611525565b905092915050565b600033905090565b6103e881111561143a576040517f08c379a000000000000000000000000000000000000000000000000000000000815260040180806020018281038252603d815260200180611657603d913960400191505060405180910390fd5b80600860008473ffffffffffffffffffffffffffffffffffffffff1673ffffffffffffffffffffffffffffffffffffffff168152602001908152602001600020819055505050565b6103e88111156114dd576040517f08c379a000000000000000000000000000000000000000000000000000000000815260040180806020018281038252603d815260200180611657603d913960400191505060405180910390fd5b80600860008473ffffffffffffffffffffffffffffffffffffffff1673ffffffffffffffffffffffffffffffffffffffff168152602001908152602001600020819055505050565b600080831182906115d1576040517f08c379a00000000000000000000000000000000000000000000000000000000081526004018080602001828103825283818151815260200191508051906020019080838360005b8381101561159657808201518184015260208101905061157b565b50505050905090810190601f1680156115c35780820380516001836020036101000a031916815260200191505b509250505060405180910390fd5b5060008385816115dd57fe5b04905080915050939250505056fe4f776e61626c653a206e6577206f776e657220697320746865207a65726f2061646472657373536166654d6174683a206d756c7469706c69636174696f6e206f766572666c6f7748415244434f52453a2073797374656d206e6f742079657420696e697469616c697a656448415244434f52453a20646973636f756e74206578707265737365642061732070657263656e74616765206265747765656e203020616e642031303030a2646970667358221220f5129d32354921a0a68fcc8433e4b9bd81a1d1fbe0d9d1e90d0d6230194f7e5a64736f6c634300060c0033",
  "immutableReferences": {},
  "source": "// SPDX-License-Identifier: MIT\npragma solidity ^0.6.12;import \"@openzeppelin/contracts/access/Ownable.sol\";\nimport \"@openzeppelin/contracts/math/SafeMath.sol\";\nimport \"@openzeppelin/contracts/token/ERC20/IERC20.sol\"; // for WETH\nimport \"@nomiclabs/buidler/console.sol\";\nimport \"@uniswap/v2-core/contracts/interfaces/IUniswapV2Factory.sol\";\nimport \"@uniswap/v2-periphery/contracts/interfaces/IUniswapV2Router02.sol\";\n\ncontract FeeApprover is Ownable {\n    using SafeMath for uint256;\n\n    function initialize(\n        address _HCAddress,\n        address _uniswapFactory,\n        address _uniswapRouter,\n        address _liquidVault\n    ) public {\n        hardcoreTokenAddress = _HCAddress;\n\n        tokenUniswapPair = IUniswapV2Factory(_uniswapFactory).getPair(\n            IUniswapV2Router02(_uniswapRouter).WETH(),\n            _HCAddress\n        );\n        feePercentX100 = 10;\n        paused = true;\n        _setFeeDiscountTo(tokenUniswapPair, 1000);\n        _setFeeDiscountFrom(tokenUniswapPair, 1000);\n        liquidVault = _liquidVault;\n    }\n\n    address tokenUniswapPair;\n    IUniswapV2Factory public uniswapFactory;\n    address hardcoreTokenAddress;\n    address liquidVault;\n    uint8 public feePercentX100; // max 255 = 25.5% artificial clamp\n    uint256 public lastTotalSupplyOfLPTokens;\n    bool paused;\n    mapping(address => uint256) public discountFrom;\n    mapping(address => uint256) public discountTo;\n    mapping(address => uint256) public feeBlackList;\n\n    // Once HCore is unpaused, it can never be paused\n    function unPause() public onlyOwner {\n        paused = false;\n    }\n\n    function setFeeMultiplier(uint8 _feeMultiplier) public onlyOwner {\n        feePercentX100 = _feeMultiplier;\n    }\n\n    function setFeeBlackList(address _address, uint256 feeAmount)\n        public\n        onlyOwner\n    {\n        feeBlackList[_address] = feeAmount;\n    }\n\n    function setFeeDiscountTo(address _address, uint256 discount)\n        public\n        onlyOwner\n    {\n        _setFeeDiscountTo(_address, discount);\n    }\n\n    function _setFeeDiscountTo(address _address, uint256 discount) internal {\n        require(\n            discount <= 1000,\n            \"HARDCORE: discount expressed as percentage between 0 and 1000\"\n        );\n        discountTo[_address] = discount;\n    }\n\n    function setFeeDiscountFrom(address _address, uint256 discount)\n        public\n        onlyOwner\n    {\n        _setFeeDiscountFrom(_address, discount);\n    }\n\n    function _setFeeDiscountFrom(address _address, uint256 discount) internal {\n        require(\n            discount <= 1000,\n            \"HARDCORE: discount expressed as percentage between 0 and 1000\"\n        );\n        discountTo[_address] = discount;\n    }\n\n    function calculateAmountsAfterFee(\n        address sender,\n        address recipient,\n        uint256 amount\n    )\n        public\n        view\n        returns (\n            uint256 transferToAmount,\n            uint256 transferToFeeDistributorAmount\n        )\n    {\n        require(!paused, \"HARDCORE: system not yet initialized\");\n        uint256 fee;\n        if (feeBlackList[sender] > 0) {\n            fee = feeBlackList[sender].mul(amount).div(100);\n        } else {\n            fee = amount.mul(feePercentX100).div(100);\n            uint256 totalDiscount = discountFrom[sender].mul(amount).div(1000) +\n                discountTo[recipient].mul(amount).div(1000);\n            fee = totalDiscount > fee ? 0 : fee - totalDiscount;\n        }\n\n        return (amount - fee, fee);\n    }\n}\n",
  "sourcePath": "/home/justin/freelancing/degen/hardcore/contracts/FeeApprover.sol",
  "compiler": {
    "name": "solc",
    "version": "0.6.12+commit.27d51765.Emscripten.clang"
  },
  "schemaVersion": "3.1.0",
  "updatedAt": "2020-10-19T01:50:21.511Z",
  "devdoc": {
    "kind": "dev",
    "methods": {
      "owner()": {
        "details": "Returns the address of the current owner."
      },
      "renounceOwnership()": {
        "details": "Leaves the contract without owner. It will not be possible to call `onlyOwner` functions anymore. Can only be called by the current owner. NOTE: Renouncing ownership will leave the contract without an owner, thereby removing any functionality that is only available to the owner."
      },
      "transferOwnership(address)": {
        "details": "Transfers ownership of the contract to a new account (`newOwner`). Can only be called by the current owner."
      }
    },
    "version": 1
  },
  "userdoc": {
    "kind": "user",
    "methods": {},
    "version": 1
  }
}