{
  "contractName": "FeeApprover",
  "abi": [
    {
      "anonymous": false,
      "inputs": [
        {
          "indexed": true,
          "internalType": "address",
          "name": "previousOwner",
          "type": "address"
        },
        {
          "indexed": true,
          "internalType": "address",
          "name": "newOwner",
          "type": "address"
        }
      ],
      "name": "OwnershipTransferred",
      "type": "event"
    },
    {
      "inputs": [
        {
          "internalType": "address",
          "name": "",
          "type": "address"
        }
      ],
      "name": "discountFrom",
      "outputs": [
        {
          "internalType": "uint256",
          "name": "",
          "type": "uint256"
        }
      ],
      "stateMutability": "view",
      "type": "function"
    },
    {
      "inputs": [
        {
          "internalType": "address",
          "name": "",
          "type": "address"
        }
      ],
      "name": "discountTo",
      "outputs": [
        {
          "internalType": "uint256",
          "name": "",
          "type": "uint256"
        }
      ],
      "stateMutability": "view",
      "type": "function"
    },
    {
      "inputs": [
        {
          "internalType": "address",
          "name": "",
          "type": "address"
        }
      ],
      "name": "feeBlackList",
      "outputs": [
        {
          "internalType": "uint256",
          "name": "",
          "type": "uint256"
        }
      ],
      "stateMutability": "view",
      "type": "function"
    },
    {
      "inputs": [],
      "name": "feePercentX100",
      "outputs": [
        {
          "internalType": "uint8",
          "name": "",
          "type": "uint8"
        }
      ],
      "stateMutability": "view",
      "type": "function"
    },
    {
      "inputs": [],
      "name": "lastTotalSupplyOfLPTokens",
      "outputs": [
        {
          "internalType": "uint256",
          "name": "",
          "type": "uint256"
        }
      ],
      "stateMutability": "view",
      "type": "function"
    },
    {
      "inputs": [],
      "name": "owner",
      "outputs": [
        {
          "internalType": "address",
          "name": "",
          "type": "address"
        }
      ],
      "stateMutability": "view",
      "type": "function"
    },
    {
      "inputs": [],
      "name": "renounceOwnership",
      "outputs": [],
      "stateMutability": "nonpayable",
      "type": "function"
    },
    {
      "inputs": [
        {
          "internalType": "address",
          "name": "newOwner",
          "type": "address"
        }
      ],
      "name": "transferOwnership",
      "outputs": [],
      "stateMutability": "nonpayable",
      "type": "function"
    },
    {
      "inputs": [],
      "name": "uniswapFactory",
      "outputs": [
        {
          "internalType": "contract IUniswapV2Factory",
          "name": "",
          "type": "address"
        }
      ],
      "stateMutability": "view",
      "type": "function"
    },
    {
      "inputs": [
        {
          "internalType": "address",
          "name": "_HCAddress",
          "type": "address"
        },
        {
          "internalType": "address",
          "name": "_uniswapFactory",
          "type": "address"
        },
        {
          "internalType": "address",
          "name": "_uniswapRouter",
          "type": "address"
        },
        {
          "internalType": "address",
          "name": "_liquidVault",
          "type": "address"
        }
      ],
      "name": "initialize",
      "outputs": [],
      "stateMutability": "nonpayable",
      "type": "function"
    },
    {
      "inputs": [],
      "name": "unPause",
      "outputs": [],
      "stateMutability": "nonpayable",
      "type": "function"
    },
    {
      "inputs": [
        {
          "internalType": "uint8",
          "name": "_feeMultiplier",
          "type": "uint8"
        }
      ],
      "name": "setFeeMultiplier",
      "outputs": [],
      "stateMutability": "nonpayable",
      "type": "function"
    },
    {
      "inputs": [
        {
          "internalType": "address",
          "name": "_address",
          "type": "address"
        },
        {
          "internalType": "uint256",
          "name": "feeAmount",
          "type": "uint256"
        }
      ],
      "name": "setFeeBlackList",
      "outputs": [],
      "stateMutability": "nonpayable",
      "type": "function"
    },
    {
      "inputs": [
        {
          "internalType": "address",
          "name": "_address",
          "type": "address"
        },
        {
          "internalType": "uint256",
          "name": "discount",
          "type": "uint256"
        }
      ],
      "name": "setFeeDiscountTo",
      "outputs": [],
      "stateMutability": "nonpayable",
      "type": "function"
    },
    {
      "inputs": [
        {
          "internalType": "address",
          "name": "_address",
          "type": "address"
        },
        {
          "internalType": "uint256",
          "name": "discount",
          "type": "uint256"
        }
      ],
      "name": "setFeeDiscountFrom",
      "outputs": [],
      "stateMutability": "nonpayable",
      "type": "function"
    },
    {
      "inputs": [
        {
          "internalType": "address",
          "name": "sender",
          "type": "address"
        },
        {
          "internalType": "address",
          "name": "recipient",
          "type": "address"
        },
        {
          "internalType": "uint256",
          "name": "amount",
          "type": "uint256"
        }
      ],
      "name": "calculateAmountsAfterFee",
      "outputs": [
        {
          "internalType": "uint256",
          "name": "transferToAmount",
          "type": "uint256"
        },
        {
          "internalType": "uint256",
          "name": "transferToFeeDistributorAmount",
          "type": "uint256"
        }
      ],
      "stateMutability": "view",
      "type": "function"
    }
  ],
  "bytecode": "0x608060405234801561001057600080fd5b5060006100216100c460201b60201c565b9050806000806101000a81548173ffffffffffffffffffffffffffffffffffffffff021916908373ffffffffffffffffffffffffffffffffffffffff1602179055508073ffffffffffffffffffffffffffffffffffffffff16600073ffffffffffffffffffffffffffffffffffffffff167f8be0079c531659141344cd1fd0a4f28419497f9722a3daafe3b4186f6b6457e060405160405180910390a3506100cc565b600033905090565b61178a806100db6000396000f3fe608060405234801561001057600080fd5b50600436106100d05760003560e01c806314e9f5c6146100d5578063301a58011461012d5780633b4e71ad146101b657806352d05985146101d7578063715018a6146102255780638aee4cfe1461022f5780638bdb2afa146102605780638da5cb5b1461029457806392f61930146102c8578063ad08d6c6146102e6578063f2fde38b14610334578063f782d3f414610378578063f7b188a5146103d0578063f81b660e146103da578063f8c8765e14610428578063fb9df249146104cc575b600080fd5b610117600480360360208110156100eb57600080fd5b81019080803573ffffffffffffffffffffffffffffffffffffffff169060200190929190505050610524565b6040518082815260200191505060405180910390f35b6101996004803603606081101561014357600080fd5b81019080803573ffffffffffffffffffffffffffffffffffffffff169060200190929190803573ffffffffffffffffffffffffffffffffffffffff1690602001909291908035906020019092919050505061053c565b604051808381526020018281526020019250505060405180910390f35b6101be61078c565b604051808260ff16815260200191505060405180910390f35b610223600480360360408110156101ed57600080fd5b81019080803573ffffffffffffffffffffffffffffffffffffffff1690602001909291908035906020019092919050505061079f565b005b61022d610909565b005b61025e6004803603602081101561024557600080fd5b81019080803560ff169060200190929190505050610a8f565b005b610268610bd2565b604051808273ffffffffffffffffffffffffffffffffffffffff16815260200191505060405180910390f35b61029c610bf8565b604051808273ffffffffffffffffffffffffffffffffffffffff16815260200191505060405180910390f35b6102d0610c21565b6040518082815260200191505060405180910390f35b610332600480360360408110156102fc57600080fd5b81019080803573ffffffffffffffffffffffffffffffffffffffff16906020019092919080359060200190929190505050610c27565b005b6103766004803603602081101561034a57600080fd5b81019080803573ffffffffffffffffffffffffffffffffffffffff169060200190929190505050610cfd565b005b6103ba6004803603602081101561038e57600080fd5b81019080803573ffffffffffffffffffffffffffffffffffffffff169060200190929190505050610f08565b6040518082815260200191505060405180910390f35b6103d8610f20565b005b610426600480360360408110156103f057600080fd5b81019080803573ffffffffffffffffffffffffffffffffffffffff16906020019092919080359060200190929190505050611005565b005b6104ca6004803603608081101561043e57600080fd5b81019080803573ffffffffffffffffffffffffffffffffffffffff169060200190929190803573ffffffffffffffffffffffffffffffffffffffff169060200190929190803573ffffffffffffffffffffffffffffffffffffffff169060200190929190803573ffffffffffffffffffffffffffffffffffffffff1690602001909291905050506110db565b005b61050e600480360360208110156104e257600080fd5b81019080803573ffffffffffffffffffffffffffffffffffffffff169060200190929190505050611376565b6040518082815260200191505060405180910390f35b60086020528060005260406000206000915090505481565b600080600660009054906101000a900460ff16156105a5576040517f08c379a00000000000000000000000000000000000000000000000000000000081526004018080602001828103825260248152602001806116f46024913960400191505060405180910390fd5b600080600960008873ffffffffffffffffffffffffffffffffffffffff1673ffffffffffffffffffffffffffffffffffffffff16815260200190815260200160002054111561065a57610653606461064586600960008b73ffffffffffffffffffffffffffffffffffffffff1673ffffffffffffffffffffffffffffffffffffffff1681526020019081526020016000205461138e90919063ffffffff16565b61141490919063ffffffff16565b905061077b565b6106926064610684600460149054906101000a900460ff1660ff168761138e90919063ffffffff16565b61141490919063ffffffff16565b905060006106fc6103e86106ee84600860008b73ffffffffffffffffffffffffffffffffffffffff1673ffffffffffffffffffffffffffffffffffffffff1681526020019081526020016000205461138e90919063ffffffff16565b61141490919063ffffffff16565b6107626103e861075485600760008d73ffffffffffffffffffffffffffffffffffffffff1673ffffffffffffffffffffffffffffffffffffffff1681526020019081526020016000205461138e90919063ffffffff16565b61141490919063ffffffff16565b01905081811161077457808203610777565b60005b9150505b808403819250925050935093915050565b600460149054906101000a900460ff1681565b6107a761145e565b73ffffffffffffffffffffffffffffffffffffffff1660008054906101000a900473ffffffffffffffffffffffffffffffffffffffff1673ffffffffffffffffffffffffffffffffffffffff1614610867576040517f08c379a00000000000000000000000000000000000000000000000000000000081526004018080602001828103825260208152602001807f4f776e61626c653a2063616c6c6572206973206e6f7420746865206f776e657281525060200191505060405180910390fd5b60648111156108c1576040517f08c379a000000000000000000000000000000000000000000000000000000000815260040180806020018281038252603a815260200180611699603a913960400191505060405180910390fd5b80600960008473ffffffffffffffffffffffffffffffffffffffff1673ffffffffffffffffffffffffffffffffffffffff168152602001908152602001600020819055505050565b61091161145e565b73ffffffffffffffffffffffffffffffffffffffff1660008054906101000a900473ffffffffffffffffffffffffffffffffffffffff1673ffffffffffffffffffffffffffffffffffffffff16146109d1576040517f08c379a00000000000000000000000000000000000000000000000000000000081526004018080602001828103825260208152602001807f4f776e61626c653a2063616c6c6572206973206e6f7420746865206f776e657281525060200191505060405180910390fd5b600073ffffffffffffffffffffffffffffffffffffffff1660008054906101000a900473ffffffffffffffffffffffffffffffffffffffff1673ffffffffffffffffffffffffffffffffffffffff167f8be0079c531659141344cd1fd0a4f28419497f9722a3daafe3b4186f6b6457e060405160405180910390a360008060006101000a81548173ffffffffffffffffffffffffffffffffffffffff021916908373ffffffffffffffffffffffffffffffffffffffff160217905550565b610a9761145e565b73ffffffffffffffffffffffffffffffffffffffff1660008054906101000a900473ffffffffffffffffffffffffffffffffffffffff1673ffffffffffffffffffffffffffffffffffffffff1614610b57576040517f08c379a00000000000000000000000000000000000000000000000000000000081526004018080602001828103825260208152602001807f4f776e61626c653a2063616c6c6572206973206e6f7420746865206f776e657281525060200191505060405180910390fd5b60648160ff161115610bb4576040517f08c379a000000000000000000000000000000000000000000000000000000000815260040180806020018281038252603a815260200180611699603a913960400191505060405180910390fd5b80600460146101000a81548160ff021916908360ff16021790555050565b600260009054906101000a900473ffffffffffffffffffffffffffffffffffffffff1681565b60008060009054906101000a900473ffffffffffffffffffffffffffffffffffffffff16905090565b60055481565b610c2f61145e565b73ffffffffffffffffffffffffffffffffffffffff1660008054906101000a900473ffffffffffffffffffffffffffffffffffffffff1673ffffffffffffffffffffffffffffffffffffffff1614610cef576040517f08c379a00000000000000000000000000000000000000000000000000000000081526004018080602001828103825260208152602001807f4f776e61626c653a2063616c6c6572206973206e6f7420746865206f776e657281525060200191505060405180910390fd5b610cf98282611466565b5050565b610d0561145e565b73ffffffffffffffffffffffffffffffffffffffff1660008054906101000a900473ffffffffffffffffffffffffffffffffffffffff1673ffffffffffffffffffffffffffffffffffffffff1614610dc5576040517f08c379a00000000000000000000000000000000000000000000000000000000081526004018080602001828103825260208152602001807f4f776e61626c653a2063616c6c6572206973206e6f7420746865206f776e657281525060200191505060405180910390fd5b600073ffffffffffffffffffffffffffffffffffffffff168173ffffffffffffffffffffffffffffffffffffffff161415610e4b576040517f08c379a00000000000000000000000000000000000000000000000000000000081526004018080602001828103825260268152602001806116736026913960400191505060405180910390fd5b8073ffffffffffffffffffffffffffffffffffffffff1660008054906101000a900473ffffffffffffffffffffffffffffffffffffffff1673ffffffffffffffffffffffffffffffffffffffff167f8be0079c531659141344cd1fd0a4f28419497f9722a3daafe3b4186f6b6457e060405160405180910390a3806000806101000a81548173ffffffffffffffffffffffffffffffffffffffff021916908373ffffffffffffffffffffffffffffffffffffffff16021790555050565b60076020528060005260406000206000915090505481565b610f2861145e565b73ffffffffffffffffffffffffffffffffffffffff1660008054906101000a900473ffffffffffffffffffffffffffffffffffffffff1673ffffffffffffffffffffffffffffffffffffffff1614610fe8576040517f08c379a00000000000000000000000000000000000000000000000000000000081526004018080602001828103825260208152602001807f4f776e61626c653a2063616c6c6572206973206e6f7420746865206f776e657281525060200191505060405180910390fd5b6000600660006101000a81548160ff021916908315150217905550565b61100d61145e565b73ffffffffffffffffffffffffffffffffffffffff1660008054906101000a900473ffffffffffffffffffffffffffffffffffffffff1673ffffffffffffffffffffffffffffffffffffffff16146110cd576040517f08c379a00000000000000000000000000000000000000000000000000000000081526004018080602001828103825260208152602001807f4f776e61626c653a2063616c6c6572206973206e6f7420746865206f776e657281525060200191505060405180910390fd5b6110d78282611509565b5050565b83600360006101000a81548173ffffffffffffffffffffffffffffffffffffffff021916908373ffffffffffffffffffffffffffffffffffffffff1602179055508273ffffffffffffffffffffffffffffffffffffffff1663e6a439058373ffffffffffffffffffffffffffffffffffffffff1663ad5c46486040518163ffffffff1660e01b815260040160206040518083038186803b15801561117e57600080fd5b505afa158015611192573d6000803e3d6000fd5b505050506040513d60208110156111a857600080fd5b8101908080519060200190929190505050866040518363ffffffff1660e01b8152600401808373ffffffffffffffffffffffffffffffffffffffff1681526020018273ffffffffffffffffffffffffffffffffffffffff1681526020019250505060206040518083038186803b15801561122157600080fd5b505afa158015611235573d6000803e3d6000fd5b505050506040513d602081101561124b57600080fd5b8101908080519060200190929190505050600160006101000a81548173ffffffffffffffffffffffffffffffffffffffff021916908373ffffffffffffffffffffffffffffffffffffffff160217905550600a600460146101000a81548160ff021916908360ff1602179055506001600660006101000a81548160ff021916908315150217905550611301600160009054906101000a900473ffffffffffffffffffffffffffffffffffffffff166103e8611466565b61132f600160009054906101000a900473ffffffffffffffffffffffffffffffffffffffff166103e8611509565b80600460006101000a81548173ffffffffffffffffffffffffffffffffffffffff021916908373ffffffffffffffffffffffffffffffffffffffff16021790555050505050565b60096020528060005260406000206000915090505481565b6000808314156113a1576000905061140e565b60008284029050828482816113b257fe5b0414611409576040517f08c379a00000000000000000000000000000000000000000000000000000000081526004018080602001828103825260218152602001806116d36021913960400191505060405180910390fd5b809150505b92915050565b600061145683836040518060400160405280601a81526020017f536166654d6174683a206469766973696f6e206279207a65726f0000000000008152506115ac565b905092915050565b600033905090565b6103e88111156114c1576040517f08c379a000000000000000000000000000000000000000000000000000000000815260040180806020018281038252603d815260200180611718603d913960400191505060405180910390fd5b80600860008473ffffffffffffffffffffffffffffffffffffffff1673ffffffffffffffffffffffffffffffffffffffff168152602001908152602001600020819055505050565b6103e8811115611564576040517f08c379a000000000000000000000000000000000000000000000000000000000815260040180806020018281038252603d815260200180611718603d913960400191505060405180910390fd5b80600760008473ffffffffffffffffffffffffffffffffffffffff1673ffffffffffffffffffffffffffffffffffffffff168152602001908152602001600020819055505050565b60008083118290611658576040517f08c379a00000000000000000000000000000000000000000000000000000000081526004018080602001828103825283818151815260200191508051906020019080838360005b8381101561161d578082015181840152602081019050611602565b50505050905090810190601f16801561164a5780820380516001836020036101000a031916815260200191505b509250505060405180910390fd5b50600083858161166457fe5b04905080915050939250505056fe4f776e61626c653a206e6577206f776e657220697320746865207a65726f206164647265737348415244434f52453a2070657263656e7461676520657870726573736564206173206e756d626572206265747765656e203020616e6420313030536166654d6174683a206d756c7469706c69636174696f6e206f766572666c6f7748415244434f52453a2073797374656d206e6f742079657420696e697469616c697a656448415244434f52453a20646973636f756e74206578707265737365642061732070657263656e74616765206265747765656e203020616e642031303030a2646970667358221220ba9cb02d87e8f3f29f1cb3c9d5a1ba9130a88f06163b2a56b6c793e4a449300364736f6c634300060c0033",
  "immutableReferences": {},
  "source": "// SPDX-License-Identifier: MIT\npragma solidity ^0.6.12;\nimport \"@openzeppelin/contracts/access/Ownable.sol\";\nimport \"@openzeppelin/contracts/math/SafeMath.sol\";\nimport \"@openzeppelin/contracts/token/ERC20/IERC20.sol\"; // for WETH\nimport \"@nomiclabs/buidler/console.sol\";\nimport \"@uniswap/v2-core/contracts/interfaces/IUniswapV2Factory.sol\";\nimport \"@uniswap/v2-periphery/contracts/interfaces/IUniswapV2Router02.sol\";\n\ncontract FeeApprover is Ownable {\n    using SafeMath for uint256;\n\n    function initialize(\n        address _HCAddress,\n        address _uniswapFactory,\n        address _uniswapRouter,\n        address _liquidVault\n    ) public {\n        hardcoreTokenAddress = _HCAddress;\n\n        tokenUniswapPair = IUniswapV2Factory(_uniswapFactory).getPair(\n            IUniswapV2Router02(_uniswapRouter).WETH(),\n            _HCAddress\n        );\n        feePercentX100 = 10;\n        paused = true;\n        _setFeeDiscountTo(tokenUniswapPair, 1000);\n        _setFeeDiscountFrom(tokenUniswapPair, 1000);\n        liquidVault = _liquidVault;\n    }\n\n    address tokenUniswapPair;\n    IUniswapV2Factory public uniswapFactory;\n    address hardcoreTokenAddress;\n    address liquidVault;\n    uint8 public feePercentX100;\n    uint256 public lastTotalSupplyOfLPTokens;\n    bool paused;\n    mapping(address => uint256) public discountFrom;\n    mapping(address => uint256) public discountTo;\n    mapping(address => uint256) public feeBlackList;\n\n    // Once HCore is unpaused, it can never be paused\n    function unPause() public onlyOwner {\n        paused = false;\n    }\n\n    function setFeeMultiplier(uint8 _feeMultiplier) public onlyOwner {\n        require(\n            _feeMultiplier <= 100,\n            \"HARDCORE: percentage expressed as number between 0 and 100\"\n        );\n        feePercentX100 = _feeMultiplier;\n    }\n\n    function setFeeBlackList(address _address, uint256 feeAmount)\n        public\n        onlyOwner\n    {\n        require(\n            feeAmount <= 100,\n            \"HARDCORE: percentage expressed as number between 0 and 100\"\n        );\n        feeBlackList[_address] = feeAmount;\n    }\n\n    function setFeeDiscountTo(address _address, uint256 discount)\n        public\n        onlyOwner\n    {\n        _setFeeDiscountTo(_address, discount);\n    }\n\n    function _setFeeDiscountTo(address _address, uint256 discount) internal {\n        require(\n            discount <= 1000,\n            \"HARDCORE: discount expressed as percentage between 0 and 1000\"\n        );\n        discountTo[_address] = discount;\n    }\n\n    function setFeeDiscountFrom(address _address, uint256 discount)\n        public\n        onlyOwner\n    {\n        _setFeeDiscountFrom(_address, discount);\n    }\n\n    function _setFeeDiscountFrom(address _address, uint256 discount) internal {\n        require(\n            discount <= 1000,\n            \"HARDCORE: discount expressed as percentage between 0 and 1000\"\n        );\n        discountFrom[_address] = discount;\n    }\n\n    function calculateAmountsAfterFee(\n        address sender,\n        address recipient,\n        uint256 amount\n    )\n        public\n        view\n        returns (\n            uint256 transferToAmount,\n            uint256 transferToFeeDistributorAmount\n        )\n    {\n        require(!paused, \"HARDCORE: system not yet initialized\");\n        uint256 fee;\n        if (feeBlackList[sender] > 0) {\n            fee = feeBlackList[sender].mul(amount).div(100);\n        } else {\n            fee = amount.mul(feePercentX100).div(100);\n            uint256 totalDiscount = discountFrom[sender].mul(fee).div(1000) +\n                discountTo[recipient].mul(fee).div(1000);\n            fee = totalDiscount > fee ? 0 : fee - totalDiscount;\n        }\n\n        return (amount - fee, fee);\n    }\n}\n",
  "sourcePath": "/home/justin/freelancing/degen/hardcore/contracts/FeeApprover.sol",
  "compiler": {
    "name": "solc",
    "version": "0.6.12+commit.27d51765.Emscripten.clang"
  },
  "schemaVersion": "3.1.0",
  "updatedAt": "2020-10-23T18:30:41.090Z",
  "devdoc": {
    "kind": "dev",
    "methods": {
      "owner()": {
        "details": "Returns the address of the current owner."
      },
      "renounceOwnership()": {
        "details": "Leaves the contract without owner. It will not be possible to call `onlyOwner` functions anymore. Can only be called by the current owner. NOTE: Renouncing ownership will leave the contract without an owner, thereby removing any functionality that is only available to the owner."
      },
      "transferOwnership(address)": {
        "details": "Transfers ownership of the contract to a new account (`newOwner`). Can only be called by the current owner."
      }
    },
    "version": 1
  },
  "userdoc": {
    "kind": "user",
    "methods": {},
    "version": 1
  }
}