{
  "contractName": "FeeApprover",
  "abi": [
    {
      "anonymous": false,
      "inputs": [
        {
          "indexed": true,
          "internalType": "address",
          "name": "previousOwner",
          "type": "address"
        },
        {
          "indexed": true,
          "internalType": "address",
          "name": "newOwner",
          "type": "address"
        }
      ],
      "name": "OwnershipTransferred",
      "type": "event"
    },
    {
      "inputs": [
        {
          "internalType": "address",
          "name": "",
          "type": "address"
        }
      ],
      "name": "discountFrom",
      "outputs": [
        {
          "internalType": "uint256",
          "name": "",
          "type": "uint256"
        }
      ],
      "stateMutability": "view",
      "type": "function"
    },
    {
      "inputs": [
        {
          "internalType": "address",
          "name": "",
          "type": "address"
        }
      ],
      "name": "discountTo",
      "outputs": [
        {
          "internalType": "uint256",
          "name": "",
          "type": "uint256"
        }
      ],
      "stateMutability": "view",
      "type": "function"
    },
    {
      "inputs": [],
      "name": "feePercentX100",
      "outputs": [
        {
          "internalType": "uint8",
          "name": "",
          "type": "uint8"
        }
      ],
      "stateMutability": "view",
      "type": "function"
    },
    {
      "inputs": [],
      "name": "lastTotalSupplyOfLPTokens",
      "outputs": [
        {
          "internalType": "uint256",
          "name": "",
          "type": "uint256"
        }
      ],
      "stateMutability": "view",
      "type": "function"
    },
    {
      "inputs": [],
      "name": "owner",
      "outputs": [
        {
          "internalType": "address",
          "name": "",
          "type": "address"
        }
      ],
      "stateMutability": "view",
      "type": "function"
    },
    {
      "inputs": [],
      "name": "renounceOwnership",
      "outputs": [],
      "stateMutability": "nonpayable",
      "type": "function"
    },
    {
      "inputs": [
        {
          "internalType": "address",
          "name": "newOwner",
          "type": "address"
        }
      ],
      "name": "transferOwnership",
      "outputs": [],
      "stateMutability": "nonpayable",
      "type": "function"
    },
    {
      "inputs": [],
      "name": "uniswapFactory",
      "outputs": [
        {
          "internalType": "contract IUniswapV2Factory",
          "name": "",
          "type": "address"
        }
      ],
      "stateMutability": "view",
      "type": "function"
    },
    {
      "inputs": [
        {
          "internalType": "address",
          "name": "_HCAddress",
          "type": "address"
        },
        {
          "internalType": "address",
          "name": "_uniswapFactory",
          "type": "address"
        },
        {
          "internalType": "address",
          "name": "WETHAddress",
          "type": "address"
        },
        {
          "internalType": "address",
          "name": "_liquidVault",
          "type": "address"
        }
      ],
      "name": "initialize",
      "outputs": [],
      "stateMutability": "nonpayable",
      "type": "function"
    },
    {
      "inputs": [],
      "name": "unPause",
      "outputs": [],
      "stateMutability": "nonpayable",
      "type": "function"
    },
    {
      "inputs": [
        {
          "internalType": "uint8",
          "name": "_feeMultiplier",
          "type": "uint8"
        }
      ],
      "name": "setFeeMultiplier",
      "outputs": [],
      "stateMutability": "nonpayable",
      "type": "function"
    },
    {
      "inputs": [
        {
          "internalType": "address",
          "name": "_address",
          "type": "address"
        },
        {
          "internalType": "uint256",
          "name": "discount",
          "type": "uint256"
        }
      ],
      "name": "setFeeDiscountTo",
      "outputs": [],
      "stateMutability": "nonpayable",
      "type": "function"
    },
    {
      "inputs": [
        {
          "internalType": "address",
          "name": "_address",
          "type": "address"
        },
        {
          "internalType": "uint256",
          "name": "discount",
          "type": "uint256"
        }
      ],
      "name": "setFeeDiscountFrom",
      "outputs": [],
      "stateMutability": "nonpayable",
      "type": "function"
    },
    {
      "inputs": [
        {
          "internalType": "address",
          "name": "sender",
          "type": "address"
        },
        {
          "internalType": "address",
          "name": "recipient",
          "type": "address"
        },
        {
          "internalType": "uint256",
          "name": "amount",
          "type": "uint256"
        }
      ],
      "name": "calculateAmountsAfterFee",
      "outputs": [
        {
          "internalType": "uint256",
          "name": "transferToAmount",
          "type": "uint256"
        },
        {
          "internalType": "uint256",
          "name": "transferToFeeDistributorAmount",
          "type": "uint256"
        }
      ],
      "stateMutability": "nonpayable",
      "type": "function"
    }
  ],
  "bytecode": "0x608060405260006100146100b760201b60201c565b9050806000806101000a81548173ffffffffffffffffffffffffffffffffffffffff021916908373ffffffffffffffffffffffffffffffffffffffff1602179055508073ffffffffffffffffffffffffffffffffffffffff16600073ffffffffffffffffffffffffffffffffffffffff167f8be0079c531659141344cd1fd0a4f28419497f9722a3daafe3b4186f6b6457e060405160405180910390a3506100bf565b600033905090565b6113d3806100ce6000396000f3fe608060405234801561001057600080fd5b50600436106100ea5760003560e01c806392f619301161008c578063f782d3f411610066578063f782d3f414610373578063f7b188a5146103cb578063f81b660e146103d5578063f8c8765e14610423576100ea565b806392f61930146102c3578063ad08d6c6146102e1578063f2fde38b1461032f576100ea565b8063715018a6116100c8578063715018a6146101f45780638aee4cfe146101fe5780638bdb2afa1461022f5780638da5cb5b14610279576100ea565b806314e9f5c6146100ef578063301a5801146101475780633b4e71ad146101d0575b600080fd5b6101316004803603602081101561010557600080fd5b81019080803573ffffffffffffffffffffffffffffffffffffffff1690602001909291905050506104c7565b6040518082815260200191505060405180910390f35b6101b36004803603606081101561015d57600080fd5b81019080803573ffffffffffffffffffffffffffffffffffffffff169060200190929190803573ffffffffffffffffffffffffffffffffffffffff169060200190929190803590602001909291905050506104df565b604051808381526020018281526020019250505060405180910390f35b6101d861067b565b604051808260ff1660ff16815260200191505060405180910390f35b6101fc61068e565b005b61022d6004803603602081101561021457600080fd5b81019080803560ff169060200190929190505050610816565b005b6102376108fd565b604051808273ffffffffffffffffffffffffffffffffffffffff1673ffffffffffffffffffffffffffffffffffffffff16815260200191505060405180910390f35b610281610923565b604051808273ffffffffffffffffffffffffffffffffffffffff1673ffffffffffffffffffffffffffffffffffffffff16815260200191505060405180910390f35b6102cb61094c565b6040518082815260200191505060405180910390f35b61032d600480360360408110156102f757600080fd5b81019080803573ffffffffffffffffffffffffffffffffffffffff16906020019092919080359060200190929190505050610952565b005b6103716004803603602081101561034557600080fd5b81019080803573ffffffffffffffffffffffffffffffffffffffff169060200190929190505050610a29565b005b6103b56004803603602081101561038957600080fd5b81019080803573ffffffffffffffffffffffffffffffffffffffff169060200190929190505050610c36565b6040518082815260200191505060405180910390f35b6103d3610c4e565b005b610421600480360360408110156103eb57600080fd5b81019080803573ffffffffffffffffffffffffffffffffffffffff16906020019092919080359060200190929190505050610d34565b005b6104c56004803603608081101561043957600080fd5b81019080803573ffffffffffffffffffffffffffffffffffffffff169060200190929190803573ffffffffffffffffffffffffffffffffffffffff169060200190929190803573ffffffffffffffffffffffffffffffffffffffff169060200190929190803573ffffffffffffffffffffffffffffffffffffffff169060200190929190505050610e0b565b005b60086020528060005260406000206000915090505481565b600080600660009054906101000a900460ff1615610548576040517f08c379a000000000000000000000000000000000000000000000000000000000815260040180806020018281038252602481526020018061133d6024913960400191505060405180910390fd5b60006105826064610574600460149054906101000a900460ff1660ff168761101190919063ffffffff16565b61109790919063ffffffff16565b905060006105ec6103e86105de87600860008b73ffffffffffffffffffffffffffffffffffffffff1673ffffffffffffffffffffffffffffffffffffffff1681526020019081526020016000205461101190919063ffffffff16565b61109790919063ffffffff16565b6106526103e861064488600760008d73ffffffffffffffffffffffffffffffffffffffff1673ffffffffffffffffffffffffffffffffffffffff1681526020019081526020016000205461101190919063ffffffff16565b61109790919063ffffffff16565b01905081811161066457808203610667565b60005b915081850382935093505050935093915050565b600460149054906101000a900460ff1681565b6106966110e1565b73ffffffffffffffffffffffffffffffffffffffff166000809054906101000a900473ffffffffffffffffffffffffffffffffffffffff1673ffffffffffffffffffffffffffffffffffffffff1614610757576040517f08c379a00000000000000000000000000000000000000000000000000000000081526004018080602001828103825260208152602001807f4f776e61626c653a2063616c6c6572206973206e6f7420746865206f776e657281525060200191505060405180910390fd5b600073ffffffffffffffffffffffffffffffffffffffff166000809054906101000a900473ffffffffffffffffffffffffffffffffffffffff1673ffffffffffffffffffffffffffffffffffffffff167f8be0079c531659141344cd1fd0a4f28419497f9722a3daafe3b4186f6b6457e060405160405180910390a360008060006101000a81548173ffffffffffffffffffffffffffffffffffffffff021916908373ffffffffffffffffffffffffffffffffffffffff160217905550565b61081e6110e1565b73ffffffffffffffffffffffffffffffffffffffff166000809054906101000a900473ffffffffffffffffffffffffffffffffffffffff1673ffffffffffffffffffffffffffffffffffffffff16146108df576040517f08c379a00000000000000000000000000000000000000000000000000000000081526004018080602001828103825260208152602001807f4f776e61626c653a2063616c6c6572206973206e6f7420746865206f776e657281525060200191505060405180910390fd5b80600460146101000a81548160ff021916908360ff16021790555050565b600260009054906101000a900473ffffffffffffffffffffffffffffffffffffffff1681565b60008060009054906101000a900473ffffffffffffffffffffffffffffffffffffffff16905090565b60055481565b61095a6110e1565b73ffffffffffffffffffffffffffffffffffffffff166000809054906101000a900473ffffffffffffffffffffffffffffffffffffffff1673ffffffffffffffffffffffffffffffffffffffff1614610a1b576040517f08c379a00000000000000000000000000000000000000000000000000000000081526004018080602001828103825260208152602001807f4f776e61626c653a2063616c6c6572206973206e6f7420746865206f776e657281525060200191505060405180910390fd5b610a2582826110e9565b5050565b610a316110e1565b73ffffffffffffffffffffffffffffffffffffffff166000809054906101000a900473ffffffffffffffffffffffffffffffffffffffff1673ffffffffffffffffffffffffffffffffffffffff1614610af2576040517f08c379a00000000000000000000000000000000000000000000000000000000081526004018080602001828103825260208152602001807f4f776e61626c653a2063616c6c6572206973206e6f7420746865206f776e657281525060200191505060405180910390fd5b600073ffffffffffffffffffffffffffffffffffffffff168173ffffffffffffffffffffffffffffffffffffffff161415610b78576040517f08c379a00000000000000000000000000000000000000000000000000000000081526004018080602001828103825260268152602001806112f66026913960400191505060405180910390fd5b8073ffffffffffffffffffffffffffffffffffffffff166000809054906101000a900473ffffffffffffffffffffffffffffffffffffffff1673ffffffffffffffffffffffffffffffffffffffff167f8be0079c531659141344cd1fd0a4f28419497f9722a3daafe3b4186f6b6457e060405160405180910390a3806000806101000a81548173ffffffffffffffffffffffffffffffffffffffff021916908373ffffffffffffffffffffffffffffffffffffffff16021790555050565b60076020528060005260406000206000915090505481565b610c566110e1565b73ffffffffffffffffffffffffffffffffffffffff166000809054906101000a900473ffffffffffffffffffffffffffffffffffffffff1673ffffffffffffffffffffffffffffffffffffffff1614610d17576040517f08c379a00000000000000000000000000000000000000000000000000000000081526004018080602001828103825260208152602001807f4f776e61626c653a2063616c6c6572206973206e6f7420746865206f776e657281525060200191505060405180910390fd5b6000600660006101000a81548160ff021916908315150217905550565b610d3c6110e1565b73ffffffffffffffffffffffffffffffffffffffff166000809054906101000a900473ffffffffffffffffffffffffffffffffffffffff1673ffffffffffffffffffffffffffffffffffffffff1614610dfd576040517f08c379a00000000000000000000000000000000000000000000000000000000081526004018080602001828103825260208152602001807f4f776e61626c653a2063616c6c6572206973206e6f7420746865206f776e657281525060200191505060405180910390fd5b610e07828261118c565b5050565b83600360006101000a81548173ffffffffffffffffffffffffffffffffffffffff021916908373ffffffffffffffffffffffffffffffffffffffff1602179055508273ffffffffffffffffffffffffffffffffffffffff1663e6a4390583866040518363ffffffff1660e01b8152600401808373ffffffffffffffffffffffffffffffffffffffff1673ffffffffffffffffffffffffffffffffffffffff1681526020018273ffffffffffffffffffffffffffffffffffffffff1673ffffffffffffffffffffffffffffffffffffffff1681526020019250505060206040518083038186803b158015610efd57600080fd5b505afa158015610f11573d6000803e3d6000fd5b505050506040513d6020811015610f2757600080fd5b8101908080519060200190929190505050600160006101000a81548173ffffffffffffffffffffffffffffffffffffffff021916908373ffffffffffffffffffffffffffffffffffffffff160217905550600a600460146101000a81548160ff021916908360ff1602179055506001600660006101000a81548160ff021916908315150217905550610fdd600160009054906101000a900473ffffffffffffffffffffffffffffffffffffffff166103e86110e9565b61100b600160009054906101000a900473ffffffffffffffffffffffffffffffffffffffff166103e861118c565b50505050565b6000808314156110245760009050611091565b600082840290508284828161103557fe5b041461108c576040517f08c379a000000000000000000000000000000000000000000000000000000000815260040180806020018281038252602181526020018061131c6021913960400191505060405180910390fd5b809150505b92915050565b60006110d983836040518060400160405280601a81526020017f536166654d6174683a206469766973696f6e206279207a65726f00000000000081525061122f565b905092915050565b600033905090565b6103e8811115611144576040517f08c379a000000000000000000000000000000000000000000000000000000000815260040180806020018281038252603d815260200180611361603d913960400191505060405180910390fd5b80600860008473ffffffffffffffffffffffffffffffffffffffff1673ffffffffffffffffffffffffffffffffffffffff168152602001908152602001600020819055505050565b6103e88111156111e7576040517f08c379a000000000000000000000000000000000000000000000000000000000815260040180806020018281038252603d815260200180611361603d913960400191505060405180910390fd5b80600860008473ffffffffffffffffffffffffffffffffffffffff1673ffffffffffffffffffffffffffffffffffffffff168152602001908152602001600020819055505050565b600080831182906112db576040517f08c379a00000000000000000000000000000000000000000000000000000000081526004018080602001828103825283818151815260200191508051906020019080838360005b838110156112a0578082015181840152602081019050611285565b50505050905090810190601f1680156112cd5780820380516001836020036101000a031916815260200191505b509250505060405180910390fd5b5060008385816112e757fe5b04905080915050939250505056fe4f776e61626c653a206e6577206f776e657220697320746865207a65726f2061646472657373536166654d6174683a206d756c7469706c69636174696f6e206f766572666c6f7748415244434f52453a2073797374656d206e6f742079657420696e697469616c697a656448415244434f52453a20646973636f756e74206578707265737365642061732070657263656e74616765206265747765656e203020616e642031303030a26469706673582212201e88a1c5afe4a5851032054e5dde1a51e8ea4c0d0b1c7239637eff3cf9c35a6764736f6c63430006020033",
  "source": "// SPDX-License-Identifier: MIT\npragma solidity ^0.6.0;\nimport \"@openzeppelin/contracts/access/Ownable.sol\";\nimport \"@openzeppelin/contracts/math/SafeMath.sol\";\nimport \"@openzeppelin/contracts/token/ERC20/IERC20.sol\"; // for WETH\nimport \"@nomiclabs/buidler/console.sol\";\nimport '@uniswap/v2-core/contracts/interfaces/IUniswapV2Factory.sol';\n\ncontract FeeApprover is Ownable {\n    using SafeMath for uint256;\n\n    function initialize(\n        address _HCAddress,\n        address _uniswapFactory,\n        address WETHAddress,\n        address _liquidVault\n    ) public{\n        hardcoreTokenAddress = _HCAddress;\n        tokenUniswapPair = IUniswapV2Factory(_uniswapFactory).getPair(WETHAddress,_HCAddress);\n        feePercentX100 = 10;\n        paused = true; \n        _setFeeDiscountTo(tokenUniswapPair, 1000);\n        _setFeeDiscountFrom(tokenUniswapPair, 1000);\n    }\n\n\n    address tokenUniswapPair;\n    IUniswapV2Factory public uniswapFactory;\n    address hardcoreTokenAddress;\n    address liquidVault;\n    uint8 public feePercentX100;  // max 255 = 25.5% artificial clamp\n    uint256 public lastTotalSupplyOfLPTokens;\n    bool paused;\n    mapping (address => uint) public discountFrom;\n    mapping (address => uint) public discountTo;\n\n    // Once HCore is unpaused, it can never be paused\n    function unPause() public onlyOwner {\n        paused = false;\n    }\n\n    function setFeeMultiplier(uint8 _feeMultiplier) public onlyOwner {\n        feePercentX100 = _feeMultiplier;\n    }\n\n    function setFeeDiscountTo(address _address, uint discount) public onlyOwner {\n        _setFeeDiscountTo(_address,discount);\n    }\n    function _setFeeDiscountTo(address _address, uint discount) internal{\n        require (discount<=1000, \"HARDCORE: discount expressed as percentage between 0 and 1000\");\n        discountTo[_address] = discount;\n    }\n\n    function setFeeDiscountFrom(address _address, uint discount) public onlyOwner {\n        _setFeeDiscountFrom(_address,discount);\n    }\n    function _setFeeDiscountFrom(address _address, uint discount) internal{\n        require (discount<=1000, \"HARDCORE: discount expressed as percentage between 0 and 1000\");\n        discountTo[_address] = discount;\n    }\n\n    function calculateAmountsAfterFee(        \n        address sender, \n        address recipient,\n        uint256 amount\n        ) public  returns (uint256 transferToAmount, uint256 transferToFeeDistributorAmount) \n        {\n          require(!paused, \"HARDCORE: system not yet initialized\");\n          uint fee = amount.mul(feePercentX100).div(100);\n          uint totalDiscount = discountFrom[sender].mul(amount).div(1000) + discountTo[recipient].mul(amount).div(1000);\n          fee = totalDiscount>fee?0:fee-totalDiscount;\n\n          return (amount - fee, fee);\n        }\n\n\n}\n",
  "sourcePath": "/home/justin/freelancing/degen/hardcore/contracts/FeeApprover.sol",
  "compiler": {
    "name": "solc",
    "version": "0.6.2+commit.bacdbe57.Emscripten.clang"
  },
  "schemaVersion": "3.1.0",
  "updatedAt": "2020-10-16T00:22:01.539Z",
  "devdoc": {
    "methods": {
      "owner()": {
        "details": "Returns the address of the current owner."
      },
      "renounceOwnership()": {
        "details": "Leaves the contract without owner. It will not be possible to call `onlyOwner` functions anymore. Can only be called by the current owner.     * NOTE: Renouncing ownership will leave the contract without an owner, thereby removing any functionality that is only available to the owner."
      },
      "transferOwnership(address)": {
        "details": "Transfers ownership of the contract to a new account (`newOwner`). Can only be called by the current owner."
      }
    }
  },
  "userdoc": {
    "methods": {}
  }
}