{
  "contractName": "LiquidVault",
  "abi": [
    {
      "anonymous": false,
      "inputs": [
        {
          "indexed": false,
          "internalType": "address",
          "name": "holder",
          "type": "address"
        },
        {
          "indexed": false,
          "internalType": "uint256",
          "name": "amount",
          "type": "uint256"
        },
        {
          "indexed": false,
          "internalType": "uint256",
          "name": "timestamp",
          "type": "uint256"
        }
      ],
      "name": "LPClaimed",
      "type": "event"
    },
    {
      "anonymous": false,
      "inputs": [
        {
          "indexed": false,
          "internalType": "address",
          "name": "holder",
          "type": "address"
        },
        {
          "indexed": false,
          "internalType": "uint256",
          "name": "amount",
          "type": "uint256"
        },
        {
          "indexed": false,
          "internalType": "uint256",
          "name": "eth",
          "type": "uint256"
        },
        {
          "indexed": false,
          "internalType": "uint256",
          "name": "hardCore",
          "type": "uint256"
        },
        {
          "indexed": false,
          "internalType": "uint256",
          "name": "timeStamp",
          "type": "uint256"
        }
      ],
      "name": "LPQueued",
      "type": "event"
    },
    {
      "anonymous": false,
      "inputs": [
        {
          "indexed": true,
          "internalType": "address",
          "name": "previousOwner",
          "type": "address"
        },
        {
          "indexed": true,
          "internalType": "address",
          "name": "newOwner",
          "type": "address"
        }
      ],
      "name": "OwnershipTransferred",
      "type": "event"
    },
    {
      "inputs": [
        {
          "internalType": "address",
          "name": "",
          "type": "address"
        },
        {
          "internalType": "uint256",
          "name": "",
          "type": "uint256"
        }
      ],
      "name": "LPstakes",
      "outputs": [
        {
          "internalType": "address",
          "name": "holder",
          "type": "address"
        },
        {
          "internalType": "uint256",
          "name": "amount",
          "type": "uint256"
        },
        {
          "internalType": "uint256",
          "name": "timestamp",
          "type": "uint256"
        }
      ],
      "stateMutability": "view",
      "type": "function"
    },
    {
      "inputs": [],
      "name": "config",
      "outputs": [
        {
          "internalType": "address",
          "name": "hardCore",
          "type": "address"
        },
        {
          "internalType": "contract IUniswapV2Router02",
          "name": "uniswapRouter",
          "type": "address"
        },
        {
          "internalType": "contract IUniswapV2Pair",
          "name": "tokenPair",
          "type": "address"
        },
        {
          "internalType": "contract FeeDistributorLike",
          "name": "feeDistributor",
          "type": "address"
        },
        {
          "internalType": "uint256",
          "name": "stakeDuration",
          "type": "uint256"
        },
        {
          "internalType": "address",
          "name": "self",
          "type": "address"
        },
        {
          "internalType": "address",
          "name": "weth",
          "type": "address"
        }
      ],
      "stateMutability": "view",
      "type": "function"
    },
    {
      "inputs": [],
      "name": "owner",
      "outputs": [
        {
          "internalType": "address",
          "name": "",
          "type": "address"
        }
      ],
      "stateMutability": "view",
      "type": "function"
    },
    {
      "inputs": [],
      "name": "renounceOwnership",
      "outputs": [],
      "stateMutability": "nonpayable",
      "type": "function"
    },
    {
      "inputs": [
        {
          "internalType": "address",
          "name": "newOwner",
          "type": "address"
        }
      ],
      "name": "transferOwnership",
      "outputs": [],
      "stateMutability": "nonpayable",
      "type": "function"
    },
    {
      "inputs": [
        {
          "internalType": "uint256",
          "name": "duration",
          "type": "uint256"
        },
        {
          "internalType": "address",
          "name": "hcore",
          "type": "address"
        },
        {
          "internalType": "address",
          "name": "feeDistributor",
          "type": "address"
        }
      ],
      "name": "seed",
      "outputs": [],
      "stateMutability": "nonpayable",
      "type": "function"
    },
    {
      "inputs": [],
      "name": "purchaseLP",
      "outputs": [],
      "stateMutability": "payable",
      "type": "function"
    },
    {
      "inputs": [],
      "name": "claimLP",
      "outputs": [
        {
          "internalType": "bool",
          "name": "",
          "type": "bool"
        }
      ],
      "stateMutability": "nonpayable",
      "type": "function"
    },
    {
      "inputs": [
        {
          "internalType": "address",
          "name": "recipient",
          "type": "address"
        },
        {
          "internalType": "uint256",
          "name": "value",
          "type": "uint256"
        }
      ],
      "name": "transferGrabLP",
      "outputs": [
        {
          "internalType": "bool",
          "name": "",
          "type": "bool"
        }
      ],
      "stateMutability": "payable",
      "type": "function"
    }
  ],
  "bytecode": "0x608060405234801561001057600080fd5b5060006100216100c460201b60201c565b9050806000806101000a81548173ffffffffffffffffffffffffffffffffffffffff021916908373ffffffffffffffffffffffffffffffffffffffff1602179055508073ffffffffffffffffffffffffffffffffffffffff16600073ffffffffffffffffffffffffffffffffffffffff167f8be0079c531659141344cd1fd0a4f28419497f9722a3daafe3b4186f6b6457e060405160405180910390a3506100cc565b600033905090565b612021806100db6000396000f3fe6080604052600436106100865760003560e01c806385b449e51161005957806385b449e5146101e95780638da5cb5b1461027c578063b9627e04146102bd578063de44391a14610338578063f2fde38b1461036557610086565b806343d5d5861461008b578063715018a6146100ef57806374d6588b1461010657806379502c5514610110575b600080fd5b6100d7600480360360408110156100a157600080fd5b81019080803573ffffffffffffffffffffffffffffffffffffffff169060200190929190803590602001909291905050506103b6565b60405180821515815260200191505060405180910390f35b3480156100fb57600080fd5b5061010461070a565b005b61010e610890565b005b34801561011c57600080fd5b50610125611408565b604051808873ffffffffffffffffffffffffffffffffffffffff1681526020018773ffffffffffffffffffffffffffffffffffffffff1681526020018673ffffffffffffffffffffffffffffffffffffffff1681526020018573ffffffffffffffffffffffffffffffffffffffff1681526020018481526020018373ffffffffffffffffffffffffffffffffffffffff1681526020018273ffffffffffffffffffffffffffffffffffffffff16815260200197505050505050505060405180910390f35b3480156101f557600080fd5b506102426004803603604081101561020c57600080fd5b81019080803573ffffffffffffffffffffffffffffffffffffffff169060200190929190803590602001909291905050506114f8565b604051808473ffffffffffffffffffffffffffffffffffffffff168152602001838152602001828152602001935050505060405180910390f35b34801561028857600080fd5b5061029161155c565b604051808273ffffffffffffffffffffffffffffffffffffffff16815260200191505060405180910390f35b3480156102c957600080fd5b50610336600480360360608110156102e057600080fd5b8101908080359060200190929190803573ffffffffffffffffffffffffffffffffffffffff169060200190929190803573ffffffffffffffffffffffffffffffffffffffff169060200190929190505050611585565b005b34801561034457600080fd5b5061034d6118d8565b60405180821515815260200191505060405180910390f35b34801561037157600080fd5b506103b46004803603602081101561038857600080fd5b81019080803573ffffffffffffffffffffffffffffffffffffffff169060200190929190505050611cc9565b005b600080600160000160009054906101000a900473ffffffffffffffffffffffffffffffffffffffff1673ffffffffffffffffffffffffffffffffffffffff167fa9059cbb2ab09eb219583f4a59a5d0623ade346d962bcd4e46b11da047c9049b858560405160200180847bffffffffffffffffffffffffffffffffffffffffffffffffffffffff191681526004018373ffffffffffffffffffffffffffffffffffffffff1660601b815260140182815260200193505050506040516020818303038152906040526040518082805190602001908083835b602083106104b0578051825260208201915060208101905060208303925061048d565b6001836020036101000a038019825116818451168082178552505050505050905001915050600060405180830381855af49150503d8060008114610510576040519150601f19603f3d011682016040523d82523d6000602084013e610515565b606091505b505090508061056f576040517f08c379a000000000000000000000000000000000000000000000000000000000815260040180806020018281038252602b815260200180611f65602b913960400191505060405180910390fd5b6000600160050160009054906101000a900473ffffffffffffffffffffffffffffffffffffffff1673ffffffffffffffffffffffffffffffffffffffff167f74d6588b1c9a8946ba8fbcdb40279dd958a83596447f96339069ab78f8d5c3fd60405160200180827bffffffffffffffffffffffffffffffffffffffffffffffffffffffff191681526004019150506040516020818303038152906040526040518082805190602001908083835b6020831061063f578051825260208201915060208101905060208303925061061c565b6001836020036101000a038019825116818451168082178552505050505050905001915050600060405180830381855af49150503d806000811461069f576040519150601f19603f3d011682016040523d82523d6000602084013e6106a4565b606091505b50509050806106fe576040517f08c379a000000000000000000000000000000000000000000000000000000000815260040180806020018281038252602e815260200180611f90602e913960400191505060405180910390fd5b60019250505092915050565b610712611ed4565b73ffffffffffffffffffffffffffffffffffffffff1660008054906101000a900473ffffffffffffffffffffffffffffffffffffffff1673ffffffffffffffffffffffffffffffffffffffff16146107d2576040517f08c379a00000000000000000000000000000000000000000000000000000000081526004018080602001828103825260208152602001807f4f776e61626c653a2063616c6c6572206973206e6f7420746865206f776e657281525060200191505060405180910390fd5b600073ffffffffffffffffffffffffffffffffffffffff1660008054906101000a900473ffffffffffffffffffffffffffffffffffffffff1673ffffffffffffffffffffffffffffffffffffffff167f8be0079c531659141344cd1fd0a4f28419497f9722a3daafe3b4186f6b6457e060405160405180910390a360008060006101000a81548173ffffffffffffffffffffffffffffffffffffffff021916908373ffffffffffffffffffffffffffffffffffffffff160217905550565b600060149054906101000a900460ff1615610913576040517f08c379a000000000000000000000000000000000000000000000000000000000815260040180806020018281038252601e8152602001807f48415244434f52453a207265656e7472616e63792076696f6c6174696f6e000081525060200191505060405180910390fd5b6001600060146101000a81548160ff021916908315150217905550600160030160009054906101000a900473ffffffffffffffffffffffffffffffffffffffff1673ffffffffffffffffffffffffffffffffffffffff1663bb57ad206040518163ffffffff1660e01b8152600401600060405180830381600087803b15801561099b57600080fd5b505af11580156109af573d6000803e3d6000fd5b5050505060003411610a0c576040517f08c379a000000000000000000000000000000000000000000000000000000000815260040180806020018281038252602b815260200180611f14602b913960400191505060405180910390fd5b6000600160060160009054906101000a900473ffffffffffffffffffffffffffffffffffffffff1673ffffffffffffffffffffffffffffffffffffffff16600160000160009054906101000a900473ffffffffffffffffffffffffffffffffffffffff1673ffffffffffffffffffffffffffffffffffffffff1610610adc57600160060160009054906101000a900473ffffffffffffffffffffffffffffffffffffffff16600160000160009054906101000a900473ffffffffffffffffffffffffffffffffffffffff16610b29565b600160000160009054906101000a900473ffffffffffffffffffffffffffffffffffffffff16600160060160009054906101000a900473ffffffffffffffffffffffffffffffffffffffff165b509050600080600160020160009054906101000a900473ffffffffffffffffffffffffffffffffffffffff1673ffffffffffffffffffffffffffffffffffffffff16630902f1ac6040518163ffffffff1660e01b815260040160606040518083038186803b158015610b9a57600080fd5b505afa158015610bae573d6000803e3d6000fd5b505050506040513d6060811015610bc457600080fd5b81019080805190602001909291908051906020019092919080519060200190929190505050506dffffffffffffffffffffffffffff1691506dffffffffffffffffffffffffffff1691506000600160000160009054906101000a900473ffffffffffffffffffffffffffffffffffffffff1673ffffffffffffffffffffffffffffffffffffffff168473ffffffffffffffffffffffffffffffffffffffff161415610d30576001800160009054906101000a900473ffffffffffffffffffffffffffffffffffffffff1673ffffffffffffffffffffffffffffffffffffffff1663ad615dec3484866040518463ffffffff1660e01b815260040180848152602001838152602001828152602001935050505060206040518083038186803b158015610cee57600080fd5b505afa158015610d02573d6000803e3d6000fd5b505050506040513d6020811015610d1857600080fd5b81019080805190602001909291905050509050610df3565b6001800160009054906101000a900473ffffffffffffffffffffffffffffffffffffffff1673ffffffffffffffffffffffffffffffffffffffff1663ad615dec3485856040518463ffffffff1660e01b815260040180848152602001838152602001828152602001935050505060206040518083038186803b158015610db557600080fd5b505afa158015610dc9573d6000803e3d6000fd5b505050506040513d6020811015610ddf57600080fd5b810190808051906020019092919050505090505b6000600160000160009054906101000a900473ffffffffffffffffffffffffffffffffffffffff1673ffffffffffffffffffffffffffffffffffffffff166370a08231600160050160009054906101000a900473ffffffffffffffffffffffffffffffffffffffff166040518263ffffffff1660e01b8152600401808273ffffffffffffffffffffffffffffffffffffffff16815260200191505060206040518083038186803b158015610ea657600080fd5b505afa158015610eba573d6000803e3d6000fd5b505050506040513d6020811015610ed057600080fd5b8101908080519060200190929190505050905081811015610f3c576040517f08c379a000000000000000000000000000000000000000000000000000000000815260040180806020018281038252602e815260200180611fbe602e913960400191505060405180910390fd5b600160060160009054906101000a900473ffffffffffffffffffffffffffffffffffffffff1673ffffffffffffffffffffffffffffffffffffffff1663d0e30db0346040518263ffffffff1660e01b81526004016000604051808303818588803b158015610fa957600080fd5b505af1158015610fbd573d6000803e3d6000fd5b50505050506000600160020160009054906101000a900473ffffffffffffffffffffffffffffffffffffffff169050600160060160009054906101000a900473ffffffffffffffffffffffffffffffffffffffff1673ffffffffffffffffffffffffffffffffffffffff1663a9059cbb82346040518363ffffffff1660e01b8152600401808373ffffffffffffffffffffffffffffffffffffffff16815260200182815260200192505050602060405180830381600087803b15801561108257600080fd5b505af1158015611096573d6000803e3d6000fd5b505050506040513d60208110156110ac57600080fd5b810190808051906020019092919050505050600160000160009054906101000a900473ffffffffffffffffffffffffffffffffffffffff1673ffffffffffffffffffffffffffffffffffffffff1663a9059cbb82856040518363ffffffff1660e01b8152600401808373ffffffffffffffffffffffffffffffffffffffff16815260200182815260200192505050602060405180830381600087803b15801561115457600080fd5b505af1158015611168573d6000803e3d6000fd5b505050506040513d602081101561117e57600080fd5b8101908080519060200190929190505050506000600160020160009054906101000a900473ffffffffffffffffffffffffffffffffffffffff1673ffffffffffffffffffffffffffffffffffffffff16636a627842600160050160009054906101000a900473ffffffffffffffffffffffffffffffffffffffff166040518263ffffffff1660e01b8152600401808273ffffffffffffffffffffffffffffffffffffffff168152602001915050602060405180830381600087803b15801561124557600080fd5b505af1158015611259573d6000803e3d6000fd5b505050506040513d602081101561126f57600080fd5b81019080805190602001909291905050509050600860003373ffffffffffffffffffffffffffffffffffffffff1673ffffffffffffffffffffffffffffffffffffffff16815260200190815260200160002060405180606001604052803373ffffffffffffffffffffffffffffffffffffffff16815260200183815260200142815250908060018154018082558091505060019003906000526020600020906003020160009091909190915060008201518160000160006101000a81548173ffffffffffffffffffffffffffffffffffffffff021916908373ffffffffffffffffffffffffffffffffffffffff160217905550602082015181600101556040820151816002015550507fe7660232e29d90e682443fb9547e347cb9bf2e0819d4b6c656ad7230d4f100e23382348742604051808673ffffffffffffffffffffffffffffffffffffffff1681526020018581526020018481526020018381526020018281526020019550505050505060405180910390a15050505050505060008060146101000a81548160ff021916908315150217905550565b60018060000160009054906101000a900473ffffffffffffffffffffffffffffffffffffffff16908060010160009054906101000a900473ffffffffffffffffffffffffffffffffffffffff16908060020160009054906101000a900473ffffffffffffffffffffffffffffffffffffffff16908060030160009054906101000a900473ffffffffffffffffffffffffffffffffffffffff16908060040154908060050160009054906101000a900473ffffffffffffffffffffffffffffffffffffffff16908060060160009054906101000a900473ffffffffffffffffffffffffffffffffffffffff16905087565b6008602052816000526040600020818154811061151157fe5b9060005260206000209060030201600091509150508060000160009054906101000a900473ffffffffffffffffffffffffffffffffffffffff16908060010154908060020154905083565b60008060009054906101000a900473ffffffffffffffffffffffffffffffffffffffff16905090565b62015180830260016004018190555081600160000160006101000a81548173ffffffffffffffffffffffffffffffffffffffff021916908373ffffffffffffffffffffffffffffffffffffffff1602179055508173ffffffffffffffffffffffffffffffffffffffff1663735de9f76040518163ffffffff1660e01b8152600401602060405180830381600087803b15801561162057600080fd5b505af1158015611634573d6000803e3d6000fd5b505050506040513d602081101561164a57600080fd5b81019080805190602001909291905050506001800160006101000a81548173ffffffffffffffffffffffffffffffffffffffff021916908373ffffffffffffffffffffffffffffffffffffffff1602179055508173ffffffffffffffffffffffffffffffffffffffff16634d3324576040518163ffffffff1660e01b8152600401602060405180830381600087803b1580156116e557600080fd5b505af11580156116f9573d6000803e3d6000fd5b505050506040513d602081101561170f57600080fd5b8101908080519060200190929190505050600160020160006101000a81548173ffffffffffffffffffffffffffffffffffffffff021916908373ffffffffffffffffffffffffffffffffffffffff16021790555080600160030160006101000a81548173ffffffffffffffffffffffffffffffffffffffff021916908373ffffffffffffffffffffffffffffffffffffffff1602179055506001800160009054906101000a900473ffffffffffffffffffffffffffffffffffffffff1673ffffffffffffffffffffffffffffffffffffffff1663ad5c46486040518163ffffffff1660e01b815260040160206040518083038186803b15801561181157600080fd5b505afa158015611825573d6000803e3d6000fd5b505050506040513d602081101561183b57600080fd5b8101908080519060200190929190505050600160060160006101000a81548173ffffffffffffffffffffffffffffffffffffffff021916908373ffffffffffffffffffffffffffffffffffffffff16021790555030600160050160006101000a81548173ffffffffffffffffffffffffffffffffffffffff021916908373ffffffffffffffffffffffffffffffffffffffff160217905550505050565b600080600860003373ffffffffffffffffffffffffffffffffffffffff1673ffffffffffffffffffffffffffffffffffffffff16815260200190815260200160002080549050905060008111611996576040517f08c379a00000000000000000000000000000000000000000000000000000000081526004018080602001828103825260178152602001807f48415244434f52453a204e6f206c6f636b6564204c502e00000000000000000081525060200191505060405180910390fd5b61199e611edc565b600860003373ffffffffffffffffffffffffffffffffffffffff1673ffffffffffffffffffffffffffffffffffffffff16815260200190815260200160002060018303815481106119eb57fe5b90600052602060002090600302016040518060600160405290816000820160009054906101000a900473ffffffffffffffffffffffffffffffffffffffff1673ffffffffffffffffffffffffffffffffffffffff1673ffffffffffffffffffffffffffffffffffffffff1681526020016001820154815260200160028201548152505090506001600401548160400151420311611af0576040517f08c379a000000000000000000000000000000000000000000000000000000000815260040180806020018281038252601a8152602001807f48415244434f52453a204c50207374696c6c206c6f636b65642e00000000000081525060200191505060405180910390fd5b600860003373ffffffffffffffffffffffffffffffffffffffff1673ffffffffffffffffffffffffffffffffffffffff168152602001908152602001600020805480611b3857fe5b6001900381819060005260206000209060030201600080820160006101000a81549073ffffffffffffffffffffffffffffffffffffffff021916905560018201600090556002820160009055505090557f469f5fb5fa3512d3e9f48b28e4f727846848e1839ef65d74388bd3b0d35cd0c433826020015142604051808473ffffffffffffffffffffffffffffffffffffffff168152602001838152602001828152602001935050505060405180910390a1600160020160009054906101000a900473ffffffffffffffffffffffffffffffffffffffff1673ffffffffffffffffffffffffffffffffffffffff1663a9059cbb826000015183602001516040518363ffffffff1660e01b8152600401808373ffffffffffffffffffffffffffffffffffffffff16815260200182815260200192505050602060405180830381600087803b158015611c8757600080fd5b505af1158015611c9b573d6000803e3d6000fd5b505050506040513d6020811015611cb157600080fd5b81019080805190602001909291905050509250505090565b611cd1611ed4565b73ffffffffffffffffffffffffffffffffffffffff1660008054906101000a900473ffffffffffffffffffffffffffffffffffffffff1673ffffffffffffffffffffffffffffffffffffffff1614611d91576040517f08c379a00000000000000000000000000000000000000000000000000000000081526004018080602001828103825260208152602001807f4f776e61626c653a2063616c6c6572206973206e6f7420746865206f776e657281525060200191505060405180910390fd5b600073ffffffffffffffffffffffffffffffffffffffff168173ffffffffffffffffffffffffffffffffffffffff161415611e17576040517f08c379a0000000000000000000000000000000000000000000000000000000008152600401808060200182810382526026815260200180611f3f6026913960400191505060405180910390fd5b8073ffffffffffffffffffffffffffffffffffffffff1660008054906101000a900473ffffffffffffffffffffffffffffffffffffffff1673ffffffffffffffffffffffffffffffffffffffff167f8be0079c531659141344cd1fd0a4f28419497f9722a3daafe3b4186f6b6457e060405160405180910390a3806000806101000a81548173ffffffffffffffffffffffffffffffffffffffff021916908373ffffffffffffffffffffffffffffffffffffffff16021790555050565b600033905090565b6040518060600160405280600073ffffffffffffffffffffffffffffffffffffffff1681526020016000815260200160008152509056fe48415244434f52453a2065746820726571756972656420746f206d696e742048617264636f7265204c50204f776e61626c653a206e6577206f776e657220697320746865207a65726f206164647265737348415244434f52453a207472616e73666572477261624c50206661696c6564206f6e207472616e7366657248415244434f52453a207472616e73666572477261624c50206661696c6564206f6e204c5020707572636861736548415244434f52453a20696e73756666696369656e742048617264436f726520696e204c69717569645661756c74a2646970667358221220498cf90a6757f5003d7f1c445fc1aaa0ddc33d0a455ae4468593ec98695ce5df64736f6c634300060c0033",
  "immutableReferences": {},
  "source": "// SPDX-License-Identifier: MIT\npragma solidity ^0.6.12;import \"@openzeppelin/contracts/access/Ownable.sol\";\nimport \"./facades/HardCoreLike.sol\";\nimport \"./facades/FeeDistributorLike.sol\";\nimport \"@uniswap/v2-periphery/contracts/interfaces/IUniswapV2Router02.sol\";\nimport \"@uniswap/v2-periphery/contracts/interfaces/IWETH.sol\";\nimport \"@uniswap/v2-core/contracts/interfaces/IUniswapV2Pair.sol\";\n\ncontract LiquidVault is Ownable {\n    /*\n        A user can hold multiple locked LP batches. Each batch takes 30 days to incubate\n    */\n    event LPQueued(\n        address holder,\n        uint256 amount,\n        uint256 eth,\n        uint256 hardCore,\n        uint256 timeStamp\n    );\n\n    event LPClaimed(address holder, uint256 amount, uint256 timestamp);\n\n    struct LPbatch {\n        address holder;\n        uint256 amount;\n        uint256 timestamp;\n    }\n\n    struct liquidVaultConfig {\n        address hardCore;\n        IUniswapV2Router02 uniswapRouter;\n        IUniswapV2Pair tokenPair;\n        FeeDistributorLike feeDistributor;\n        uint256 stakeDuration;\n        address self;\n        address weth;\n    }\n\n    bool private locked;\n    modifier lock {\n        require(!locked, \"HARDCORE: reentrancy violation\");\n        locked = true;\n        _;\n        locked = false;\n    }\n\n    liquidVaultConfig public config;\n    //Front end can loop through this and inspect if enough time has passed\n    mapping(address => LPbatch[]) public LPstakes;\n\n    function seed(\n        uint256 duration,\n        address hcore,\n        address feeDistributor\n    ) public {\n        config.stakeDuration = duration * 1 days;\n        config.hardCore = hcore;\n        config.uniswapRouter = IUniswapV2Router02(\n            HardCoreLike(hcore).uniswapRouter()\n        );\n        config.tokenPair = IUniswapV2Pair(\n            HardCoreLike(hcore).tokenUniswapPair()\n        );\n        config.feeDistributor = FeeDistributorLike(feeDistributor);\n        config.weth = config.uniswapRouter.WETH();\n        config.self = address(this);\n    }\n\n    //send eth to match with HCORE tokens in LiquidVault\n    function purchaseLP() public payable lock {\n        config.feeDistributor.distributeFees();\n        require(msg.value > 0, \"HARDCORE: eth required to mint Hardcore LP \");\n        (address token0, ) = config.hardCore < config.weth\n            ? (config.hardCore, config.weth)\n            : (config.weth, config.hardCore);\n        (uint256 reserve1, uint256 reserve2, ) = config.tokenPair.getReserves();\n        uint256 hardCoreRequired = 0;\n\n        if (token0 == config.hardCore) {\n            hardCoreRequired = config.uniswapRouter.quote(\n                msg.value,\n                reserve2,\n                reserve1\n            );\n        } else {\n            hardCoreRequired = config.uniswapRouter.quote(\n                msg.value,\n                reserve1,\n                reserve2\n            );\n        }\n        uint256 balance = HardCoreLike(config.hardCore).balanceOf(config.self);\n        require(\n            balance >= hardCoreRequired,\n            \"HARDCORE: insufficient HardCore in LiquidVault\"\n        );\n\n        //IWETH(WETH).deposit{value : totalETHContributed}();\n        IWETH(config.weth).deposit{value: msg.value}();\n        address tokenPairAddress = address(config.tokenPair);\n        IWETH(config.weth).transfer(tokenPairAddress, msg.value);\n        HardCoreLike(config.hardCore).transfer(\n            tokenPairAddress,\n            hardCoreRequired\n        );\n        uint256 liquidityCreated = config.tokenPair.mint(config.self);\n\n        LPstakes[msg.sender].push(\n            LPbatch({\n                holder: msg.sender,\n                amount: liquidityCreated,\n                timestamp: block.timestamp\n            })\n        );\n\n        emit LPQueued(\n            msg.sender,\n            liquidityCreated,\n            msg.value,\n            hardCoreRequired,\n            block.timestamp\n        );\n    }\n\n    //pops latest LP if older than period\n    function claimLP() public returns (bool) {\n        uint256 length = LPstakes[msg.sender].length;\n        require(length > 0, \"HARDCORE: No locked LP.\");\n        LPbatch memory batch = LPstakes[msg.sender][length - 1];\n        require(block.timestamp - batch.timestamp > config.stakeDuration, \"HARDCORE: LP still locked.\");\n        LPstakes[msg.sender].pop();\n        emit LPClaimed(msg.sender, batch.amount, block.timestamp);\n        return config.tokenPair.transfer(batch.holder, batch.amount);\n    }\n\n    //allow user to immediately claim the LP from their transaction fee. Ether forwarded depends on user\n    function transferGrabLP(address recipient, uint256 value) public payable returns (bool){\n        (bool transferSuccess, ) = config.hardCore.delegatecall(abi.encodePacked(bytes4(keccak256(\"transfer(address,uint256)\")),recipient,value));\n        require(transferSuccess, \"HARDCORE: transferGrabLP failed on transfer\");\n        (bool lpPurchaseSuccess,) = config.self.delegatecall(abi.encodePacked(bytes4(keccak256(\"purchaseLP()\"))));\n        require(lpPurchaseSuccess, \"HARDCORE: transferGrabLP failed on LP purchase\" );\n        return true;\n    }\n}\n",
  "sourcePath": "/home/justin/freelancing/degen/hardcore/contracts/LiquidVault.sol",
  "compiler": {
    "name": "solc",
    "version": "0.6.12+commit.27d51765.Emscripten.clang"
  },
  "schemaVersion": "3.1.0",
  "updatedAt": "2020-10-19T01:50:21.528Z",
  "devdoc": {
    "kind": "dev",
    "methods": {
      "owner()": {
        "details": "Returns the address of the current owner."
      },
      "renounceOwnership()": {
        "details": "Leaves the contract without owner. It will not be possible to call `onlyOwner` functions anymore. Can only be called by the current owner. NOTE: Renouncing ownership will leave the contract without an owner, thereby removing any functionality that is only available to the owner."
      },
      "transferOwnership(address)": {
        "details": "Transfers ownership of the contract to a new account (`newOwner`). Can only be called by the current owner."
      }
    },
    "version": 1
  },
  "userdoc": {
    "kind": "user",
    "methods": {},
    "version": 1
  }
}