{
  "contractName": "LiquidVault",
  "abi": [
    {
      "inputs": [],
      "name": "purchaseLP",
      "outputs": [],
      "stateMutability": "payable",
      "type": "function"
    },
    {
      "inputs": [],
      "name": "claimLP",
      "outputs": [],
      "stateMutability": "nonpayable",
      "type": "function"
    }
  ],
  "bytecode": "0x6080604052348015600f57600080fd5b5060818061001e6000396000f3fe60806040526004361060265760003560e01c806374d6588b14602b578063de44391a146033575b600080fd5b60316047565b005b348015603e57600080fd5b5060456049565b005b565b56fea264697066735822122071b0953185ac643f5ec540d0a3630ae3fac99b48b82386bc02f8d61f23d9896164736f6c63430006020033",
  "source": "pragma solidity ^0.6.0;\n\ncontract LiquidVault {\n    function purchaseLP() public payable{\n\n    }\n    function claimLP () public {\n\n    }\n}",
  "sourcePath": "/home/justin/freelancing/degen/hardcore/contracts/LiquidVault.sol",
  "compiler": {
    "name": "solc",
    "version": "0.6.2+commit.bacdbe57.Emscripten.clang"
  },
  "schemaVersion": "3.1.0",
  "updatedAt": "2020-10-16T00:22:01.551Z",
  "devdoc": {
    "methods": {}
  },
  "userdoc": {
    "methods": {}
  }
}