{
  "contractName": "LiquidVault",
  "abi": [
    {
      "anonymous": false,
      "inputs": [
        {
          "indexed": false,
          "internalType": "address",
          "name": "holder",
          "type": "address"
        },
        {
          "indexed": false,
          "internalType": "uint256",
          "name": "amount",
          "type": "uint256"
        },
        {
          "indexed": false,
          "internalType": "uint256",
          "name": "timestamp",
          "type": "uint256"
        },
        {
          "indexed": false,
          "internalType": "uint256",
          "name": "exitfee",
          "type": "uint256"
        }
      ],
      "name": "LPClaimed",
      "type": "event"
    },
    {
      "anonymous": false,
      "inputs": [
        {
          "indexed": false,
          "internalType": "address",
          "name": "holder",
          "type": "address"
        },
        {
          "indexed": false,
          "internalType": "uint256",
          "name": "amount",
          "type": "uint256"
        },
        {
          "indexed": false,
          "internalType": "uint256",
          "name": "eth",
          "type": "uint256"
        },
        {
          "indexed": false,
          "internalType": "uint256",
          "name": "hardCore",
          "type": "uint256"
        },
        {
          "indexed": false,
          "internalType": "uint256",
          "name": "timeStamp",
          "type": "uint256"
        }
      ],
      "name": "LPQueued",
      "type": "event"
    },
    {
      "anonymous": false,
      "inputs": [
        {
          "indexed": true,
          "internalType": "address",
          "name": "previousOwner",
          "type": "address"
        },
        {
          "indexed": true,
          "internalType": "address",
          "name": "newOwner",
          "type": "address"
        }
      ],
      "name": "OwnershipTransferred",
      "type": "event"
    },
    {
      "inputs": [
        {
          "internalType": "address",
          "name": "",
          "type": "address"
        },
        {
          "internalType": "uint256",
          "name": "",
          "type": "uint256"
        }
      ],
      "name": "LockedLP",
      "outputs": [
        {
          "internalType": "address",
          "name": "holder",
          "type": "address"
        },
        {
          "internalType": "uint256",
          "name": "amount",
          "type": "uint256"
        },
        {
          "internalType": "uint256",
          "name": "timestamp",
          "type": "uint256"
        }
      ],
      "stateMutability": "view",
      "type": "function"
    },
    {
      "inputs": [],
      "name": "config",
      "outputs": [
        {
          "internalType": "address",
          "name": "hardCore",
          "type": "address"
        },
        {
          "internalType": "contract IUniswapV2Router02",
          "name": "uniswapRouter",
          "type": "address"
        },
        {
          "internalType": "contract IUniswapV2Pair",
          "name": "tokenPair",
          "type": "address"
        },
        {
          "internalType": "contract FeeDistributorLike",
          "name": "feeDistributor",
          "type": "address"
        },
        {
          "internalType": "uint256",
          "name": "stakeDuration",
          "type": "uint256"
        },
        {
          "internalType": "address",
          "name": "self",
          "type": "address"
        },
        {
          "internalType": "address",
          "name": "weth",
          "type": "address"
        },
        {
          "internalType": "address",
          "name": "donation",
          "type": "address"
        },
        {
          "internalType": "uint256",
          "name": "donationShare",
          "type": "uint256"
        }
      ],
      "stateMutability": "view",
      "type": "function"
    },
    {
      "inputs": [],
      "name": "owner",
      "outputs": [
        {
          "internalType": "address",
          "name": "",
          "type": "address"
        }
      ],
      "stateMutability": "view",
      "type": "function"
    },
    {
      "inputs": [],
      "name": "renounceOwnership",
      "outputs": [],
      "stateMutability": "nonpayable",
      "type": "function"
    },
    {
      "inputs": [
        {
          "internalType": "address",
          "name": "newOwner",
          "type": "address"
        }
      ],
      "name": "transferOwnership",
      "outputs": [],
      "stateMutability": "nonpayable",
      "type": "function"
    },
    {
      "inputs": [
        {
          "internalType": "uint256",
          "name": "duration",
          "type": "uint256"
        },
        {
          "internalType": "address",
          "name": "hcore",
          "type": "address"
        },
        {
          "internalType": "address",
          "name": "feeDistributor",
          "type": "address"
        },
        {
          "internalType": "address",
          "name": "donation",
          "type": "address"
        },
        {
          "internalType": "uint256",
          "name": "donationShare",
          "type": "uint256"
        }
      ],
      "name": "seed",
      "outputs": [],
      "stateMutability": "nonpayable",
      "type": "function"
    },
    {
      "inputs": [
        {
          "internalType": "address",
          "name": "beneficiary",
          "type": "address"
        }
      ],
      "name": "purchaseLPFor",
      "outputs": [],
      "stateMutability": "payable",
      "type": "function"
    },
    {
      "inputs": [],
      "name": "purchaseLP",
      "outputs": [],
      "stateMutability": "payable",
      "type": "function"
    },
    {
      "inputs": [],
      "name": "claimLP",
      "outputs": [
        {
          "internalType": "bool",
          "name": "",
          "type": "bool"
        }
      ],
      "stateMutability": "nonpayable",
      "type": "function"
    },
    {
      "inputs": [
        {
          "internalType": "address",
          "name": "recipient",
          "type": "address"
        },
        {
          "internalType": "uint256",
          "name": "value",
          "type": "uint256"
        }
      ],
      "name": "transferGrabLP",
      "outputs": [
        {
          "internalType": "bool",
          "name": "",
          "type": "bool"
        }
      ],
      "stateMutability": "payable",
      "type": "function"
    },
    {
      "inputs": [
        {
          "internalType": "address",
          "name": "holder",
          "type": "address"
        }
      ],
      "name": "lockedLPLength",
      "outputs": [
        {
          "internalType": "uint256",
          "name": "",
          "type": "uint256"
        }
      ],
      "stateMutability": "view",
      "type": "function"
    },
    {
      "inputs": [
        {
          "internalType": "address",
          "name": "holder",
          "type": "address"
        },
        {
          "internalType": "uint256",
          "name": "position",
          "type": "uint256"
        }
      ],
      "name": "getLockedLP",
      "outputs": [
        {
          "internalType": "address",
          "name": "",
          "type": "address"
        },
        {
          "internalType": "uint256",
          "name": "",
          "type": "uint256"
        },
        {
          "internalType": "uint256",
          "name": "",
          "type": "uint256"
        }
      ],
      "stateMutability": "view",
      "type": "function"
    }
  ],
  "bytecode": "0x608060405234801561001057600080fd5b5060006100216100c460201b60201c565b9050806000806101000a81548173ffffffffffffffffffffffffffffffffffffffff021916908373ffffffffffffffffffffffffffffffffffffffff1602179055508073ffffffffffffffffffffffffffffffffffffffff16600073ffffffffffffffffffffffffffffffffffffffff167f8be0079c531659141344cd1fd0a4f28419497f9722a3daafe3b4186f6b6457e060405160405180910390a3506100cc565b600033905090565b6127c6806100db6000396000f3fe6080604052600436106100975760003560e01c80631ebaaf661461009c57806343d5d5861461012f578063715018a61461019357806374d6588b146101aa57806379502c55146101b457806387c9082d146102b15780638da5cb5b14610316578063a8b0199414610357578063bd901bdd146103fc578063de44391a14610440578063e19544431461046d578063f2fde38b14610500575b600080fd5b3480156100a857600080fd5b506100f5600480360360408110156100bf57600080fd5b81019080803573ffffffffffffffffffffffffffffffffffffffff16906020019092919080359060200190929190505050610551565b604051808473ffffffffffffffffffffffffffffffffffffffff168152602001838152602001828152602001935050505060405180910390f35b61017b6004803603604081101561014557600080fd5b81019080803573ffffffffffffffffffffffffffffffffffffffff1690602001909291908035906020019092919050505061064a565b60405180821515815260200191505060405180910390f35b34801561019f57600080fd5b506101a86109c2565b005b6101b2610b48565b005b3480156101c057600080fd5b506101c9610bcc565b604051808a73ffffffffffffffffffffffffffffffffffffffff1681526020018973ffffffffffffffffffffffffffffffffffffffff1681526020018873ffffffffffffffffffffffffffffffffffffffff1681526020018773ffffffffffffffffffffffffffffffffffffffff1681526020018681526020018573ffffffffffffffffffffffffffffffffffffffff1681526020018473ffffffffffffffffffffffffffffffffffffffff1681526020018373ffffffffffffffffffffffffffffffffffffffff168152602001828152602001995050505050505050505060405180910390f35b3480156102bd57600080fd5b50610300600480360360208110156102d457600080fd5b81019080803573ffffffffffffffffffffffffffffffffffffffff169060200190929190505050610ce8565b6040518082815260200191505060405180910390f35b34801561032257600080fd5b5061032b610d34565b604051808273ffffffffffffffffffffffffffffffffffffffff16815260200191505060405180910390f35b34801561036357600080fd5b506103fa600480360360a081101561037a57600080fd5b8101908080359060200190929190803573ffffffffffffffffffffffffffffffffffffffff169060200190929190803573ffffffffffffffffffffffffffffffffffffffff169060200190929190803573ffffffffffffffffffffffffffffffffffffffff16906020019092919080359060200190929190505050610d5d565b005b61043e6004803603602081101561041257600080fd5b81019080803573ffffffffffffffffffffffffffffffffffffffff16906020019092919050505061115a565b005b34801561044c57600080fd5b50610455611e4f565b60405180821515815260200191505060405180910390f35b34801561047957600080fd5b506104c66004803603604081101561049057600080fd5b81019080803573ffffffffffffffffffffffffffffffffffffffff169060200190929190803590602001909291905050506123b0565b604051808473ffffffffffffffffffffffffffffffffffffffff168152602001838152602001828152602001935050505060405180910390f35b34801561050c57600080fd5b5061054f6004803603602081101561052357600080fd5b81019080803573ffffffffffffffffffffffffffffffffffffffff169060200190929190505050612414565b005b600080600061055e612627565b600a60008773ffffffffffffffffffffffffffffffffffffffff1673ffffffffffffffffffffffffffffffffffffffff16815260200190815260200160002085815481106105a857fe5b90600052602060002090600302016040518060600160405290816000820160009054906101000a900473ffffffffffffffffffffffffffffffffffffffff1673ffffffffffffffffffffffffffffffffffffffff1673ffffffffffffffffffffffffffffffffffffffff168152602001600182015481526020016002820154815250509050806000015181602001518260400151935093509350509250925092565b600080600160000160009054906101000a900473ffffffffffffffffffffffffffffffffffffffff1673ffffffffffffffffffffffffffffffffffffffff168484604051602401808373ffffffffffffffffffffffffffffffffffffffff168152602001828152602001925050506040516020818303038152906040527fa9059cbb000000000000000000000000000000000000000000000000000000007bffffffffffffffffffffffffffffffffffffffffffffffffffffffff19166020820180517bffffffffffffffffffffffffffffffffffffffffffffffffffffffff83818316178352505050506040518082805190602001908083835b602083106107685780518252602082019150602081019050602083039250610745565b6001836020036101000a038019825116818451168082178552505050505050905001915050600060405180830381855af49150503d80600081146107c8576040519150601f19603f3d011682016040523d82523d6000602084013e6107cd565b606091505b5050905080610827576040517f08c379a000000000000000000000000000000000000000000000000000000000815260040180806020018281038252602b8152602001806126b4602b913960400191505060405180910390fd5b6000600160050160009054906101000a900473ffffffffffffffffffffffffffffffffffffffff1673ffffffffffffffffffffffffffffffffffffffff167f74d6588b1c9a8946ba8fbcdb40279dd958a83596447f96339069ab78f8d5c3fd60405160200180827bffffffffffffffffffffffffffffffffffffffffffffffffffffffff191681526004019150506040516020818303038152906040526040518082805190602001908083835b602083106108f757805182526020820191506020810190506020830392506108d4565b6001836020036101000a038019825116818451168082178552505050505050905001915050600060405180830381855af49150503d8060008114610957576040519150601f19603f3d011682016040523d82523d6000602084013e61095c565b606091505b50509050806109b6576040517f08c379a000000000000000000000000000000000000000000000000000000000815260040180806020018281038252602e8152602001806126df602e913960400191505060405180910390fd5b60019250505092915050565b6109ca61261f565b73ffffffffffffffffffffffffffffffffffffffff1660008054906101000a900473ffffffffffffffffffffffffffffffffffffffff1673ffffffffffffffffffffffffffffffffffffffff1614610a8a576040517f08c379a00000000000000000000000000000000000000000000000000000000081526004018080602001828103825260208152602001807f4f776e61626c653a2063616c6c6572206973206e6f7420746865206f776e657281525060200191505060405180910390fd5b600073ffffffffffffffffffffffffffffffffffffffff1660008054906101000a900473ffffffffffffffffffffffffffffffffffffffff1673ffffffffffffffffffffffffffffffffffffffff167f8be0079c531659141344cd1fd0a4f28419497f9722a3daafe3b4186f6b6457e060405160405180910390a360008060006101000a81548173ffffffffffffffffffffffffffffffffffffffff021916908373ffffffffffffffffffffffffffffffffffffffff160217905550565b3073ffffffffffffffffffffffffffffffffffffffff1663bd901bdd34336040518363ffffffff1660e01b8152600401808273ffffffffffffffffffffffffffffffffffffffff1681526020019150506000604051808303818588803b158015610bb157600080fd5b505af1158015610bc5573d6000803e3d6000fd5b5050505050565b60018060000160009054906101000a900473ffffffffffffffffffffffffffffffffffffffff16908060010160009054906101000a900473ffffffffffffffffffffffffffffffffffffffff16908060020160009054906101000a900473ffffffffffffffffffffffffffffffffffffffff16908060030160009054906101000a900473ffffffffffffffffffffffffffffffffffffffff16908060040154908060050160009054906101000a900473ffffffffffffffffffffffffffffffffffffffff16908060060160009054906101000a900473ffffffffffffffffffffffffffffffffffffffff16908060070160009054906101000a900473ffffffffffffffffffffffffffffffffffffffff16908060080154905089565b6000600a60008373ffffffffffffffffffffffffffffffffffffffff1673ffffffffffffffffffffffffffffffffffffffff168152602001908152602001600020805490509050919050565b60008060009054906101000a900473ffffffffffffffffffffffffffffffffffffffff16905090565b6064811115610db7576040517f08c379a000000000000000000000000000000000000000000000000000000000815260040180806020018281038252602c815260200180612765602c913960400191505060405180910390fd5b62015180850260016004018190555083600160000160006101000a81548173ffffffffffffffffffffffffffffffffffffffff021916908373ffffffffffffffffffffffffffffffffffffffff1602179055508373ffffffffffffffffffffffffffffffffffffffff1663735de9f76040518163ffffffff1660e01b8152600401602060405180830381600087803b158015610e5257600080fd5b505af1158015610e66573d6000803e3d6000fd5b505050506040513d6020811015610e7c57600080fd5b81019080805190602001909291905050506001800160006101000a81548173ffffffffffffffffffffffffffffffffffffffff021916908373ffffffffffffffffffffffffffffffffffffffff1602179055508373ffffffffffffffffffffffffffffffffffffffff16634d3324576040518163ffffffff1660e01b8152600401602060405180830381600087803b158015610f1757600080fd5b505af1158015610f2b573d6000803e3d6000fd5b505050506040513d6020811015610f4157600080fd5b8101908080519060200190929190505050600160020160006101000a81548173ffffffffffffffffffffffffffffffffffffffff021916908373ffffffffffffffffffffffffffffffffffffffff16021790555082600160030160006101000a81548173ffffffffffffffffffffffffffffffffffffffff021916908373ffffffffffffffffffffffffffffffffffffffff1602179055506001800160009054906101000a900473ffffffffffffffffffffffffffffffffffffffff1673ffffffffffffffffffffffffffffffffffffffff1663ad5c46486040518163ffffffff1660e01b815260040160206040518083038186803b15801561104357600080fd5b505afa158015611057573d6000803e3d6000fd5b505050506040513d602081101561106d57600080fd5b8101908080519060200190929190505050600160060160006101000a81548173ffffffffffffffffffffffffffffffffffffffff021916908373ffffffffffffffffffffffffffffffffffffffff16021790555030600160050160006101000a81548173ffffffffffffffffffffffffffffffffffffffff021916908373ffffffffffffffffffffffffffffffffffffffff16021790555081600160070160006101000a81548173ffffffffffffffffffffffffffffffffffffffff021916908373ffffffffffffffffffffffffffffffffffffffff160217905550806001600801819055505050505050565b600060149054906101000a900460ff16156111dd576040517f08c379a000000000000000000000000000000000000000000000000000000000815260040180806020018281038252601e8152602001807f48415244434f52453a207265656e7472616e63792076696f6c6174696f6e000081525060200191505060405180910390fd5b6001600060146101000a81548160ff021916908315150217905550600160030160009054906101000a900473ffffffffffffffffffffffffffffffffffffffff1673ffffffffffffffffffffffffffffffffffffffff1663bb57ad206040518163ffffffff1660e01b8152600401600060405180830381600087803b15801561126557600080fd5b505af1158015611279573d6000803e3d6000fd5b50505050600034116112d6576040517f08c379a000000000000000000000000000000000000000000000000000000000815260040180806020018281038252602a81526020018061270d602a913960400191505060405180910390fd5b6000600160060160009054906101000a900473ffffffffffffffffffffffffffffffffffffffff1673ffffffffffffffffffffffffffffffffffffffff16600160000160009054906101000a900473ffffffffffffffffffffffffffffffffffffffff1673ffffffffffffffffffffffffffffffffffffffff16106113a657600160060160009054906101000a900473ffffffffffffffffffffffffffffffffffffffff16600160000160009054906101000a900473ffffffffffffffffffffffffffffffffffffffff166113f3565b600160000160009054906101000a900473ffffffffffffffffffffffffffffffffffffffff16600160060160009054906101000a900473ffffffffffffffffffffffffffffffffffffffff165b509050600080600160020160009054906101000a900473ffffffffffffffffffffffffffffffffffffffff1673ffffffffffffffffffffffffffffffffffffffff16630902f1ac6040518163ffffffff1660e01b815260040160606040518083038186803b15801561146457600080fd5b505afa158015611478573d6000803e3d6000fd5b505050506040513d606081101561148e57600080fd5b81019080805190602001909291908051906020019092919080519060200190929190505050506dffffffffffffffffffffffffffff1691506dffffffffffffffffffffffffffff169150600080600160020160009054906101000a900473ffffffffffffffffffffffffffffffffffffffff1673ffffffffffffffffffffffffffffffffffffffff166318160ddd6040518163ffffffff1660e01b815260040160206040518083038186803b15801561154657600080fd5b505afa15801561155a573d6000803e3d6000fd5b505050506040513d602081101561157057600080fd5b8101908080519060200190929190505050141561165557600160000160009054906101000a900473ffffffffffffffffffffffffffffffffffffffff1673ffffffffffffffffffffffffffffffffffffffff166370a08231306040518263ffffffff1660e01b8152600401808273ffffffffffffffffffffffffffffffffffffffff16815260200191505060206040518083038186803b15801561161357600080fd5b505afa158015611627573d6000803e3d6000fd5b505050506040513d602081101561163d57600080fd5b81019080805190602001909291905050509050611839565b600160000160009054906101000a900473ffffffffffffffffffffffffffffffffffffffff1673ffffffffffffffffffffffffffffffffffffffff168473ffffffffffffffffffffffffffffffffffffffff161415611775576001800160009054906101000a900473ffffffffffffffffffffffffffffffffffffffff1673ffffffffffffffffffffffffffffffffffffffff1663ad615dec3484866040518463ffffffff1660e01b815260040180848152602001838152602001828152602001935050505060206040518083038186803b15801561173357600080fd5b505afa158015611747573d6000803e3d6000fd5b505050506040513d602081101561175d57600080fd5b81019080805190602001909291905050509050611838565b6001800160009054906101000a900473ffffffffffffffffffffffffffffffffffffffff1673ffffffffffffffffffffffffffffffffffffffff1663ad615dec3485856040518463ffffffff1660e01b815260040180848152602001838152602001828152602001935050505060206040518083038186803b1580156117fa57600080fd5b505afa15801561180e573d6000803e3d6000fd5b505050506040513d602081101561182457600080fd5b810190808051906020019092919050505090505b5b6000600160000160009054906101000a900473ffffffffffffffffffffffffffffffffffffffff1673ffffffffffffffffffffffffffffffffffffffff166370a08231600160050160009054906101000a900473ffffffffffffffffffffffffffffffffffffffff166040518263ffffffff1660e01b8152600401808273ffffffffffffffffffffffffffffffffffffffff16815260200191505060206040518083038186803b1580156118ec57600080fd5b505afa158015611900573d6000803e3d6000fd5b505050506040513d602081101561191657600080fd5b8101908080519060200190929190505050905081811015611982576040517f08c379a000000000000000000000000000000000000000000000000000000000815260040180806020018281038252602e815260200180612737602e913960400191505060405180910390fd5b600160060160009054906101000a900473ffffffffffffffffffffffffffffffffffffffff1673ffffffffffffffffffffffffffffffffffffffff1663d0e30db0346040518263ffffffff1660e01b81526004016000604051808303818588803b1580156119ef57600080fd5b505af1158015611a03573d6000803e3d6000fd5b50505050506000600160020160009054906101000a900473ffffffffffffffffffffffffffffffffffffffff169050600160060160009054906101000a900473ffffffffffffffffffffffffffffffffffffffff1673ffffffffffffffffffffffffffffffffffffffff1663a9059cbb82346040518363ffffffff1660e01b8152600401808373ffffffffffffffffffffffffffffffffffffffff16815260200182815260200192505050602060405180830381600087803b158015611ac857600080fd5b505af1158015611adc573d6000803e3d6000fd5b505050506040513d6020811015611af257600080fd5b810190808051906020019092919050505050600160000160009054906101000a900473ffffffffffffffffffffffffffffffffffffffff1673ffffffffffffffffffffffffffffffffffffffff1663a9059cbb82856040518363ffffffff1660e01b8152600401808373ffffffffffffffffffffffffffffffffffffffff16815260200182815260200192505050602060405180830381600087803b158015611b9a57600080fd5b505af1158015611bae573d6000803e3d6000fd5b505050506040513d6020811015611bc457600080fd5b8101908080519060200190929190505050506000600160020160009054906101000a900473ffffffffffffffffffffffffffffffffffffffff1673ffffffffffffffffffffffffffffffffffffffff16636a627842600160050160009054906101000a900473ffffffffffffffffffffffffffffffffffffffff166040518263ffffffff1660e01b8152600401808273ffffffffffffffffffffffffffffffffffffffff168152602001915050602060405180830381600087803b158015611c8b57600080fd5b505af1158015611c9f573d6000803e3d6000fd5b505050506040513d6020811015611cb557600080fd5b81019080805190602001909291905050509050600a60008973ffffffffffffffffffffffffffffffffffffffff1673ffffffffffffffffffffffffffffffffffffffff16815260200190815260200160002060405180606001604052808a73ffffffffffffffffffffffffffffffffffffffff16815260200183815260200142815250908060018154018082558091505060019003906000526020600020906003020160009091909190915060008201518160000160006101000a81548173ffffffffffffffffffffffffffffffffffffffff021916908373ffffffffffffffffffffffffffffffffffffffff160217905550602082015181600101556040820151816002015550507fe7660232e29d90e682443fb9547e347cb9bf2e0819d4b6c656ad7230d4f100e28882348742604051808673ffffffffffffffffffffffffffffffffffffffff1681526020018581526020018481526020018381526020018281526020019550505050505060405180910390a15050505050505060008060146101000a81548160ff02191690831515021790555050565b600080600a60003373ffffffffffffffffffffffffffffffffffffffff1673ffffffffffffffffffffffffffffffffffffffff16815260200190815260200160002080549050905060008111611f0d576040517f08c379a00000000000000000000000000000000000000000000000000000000081526004018080602001828103825260178152602001807f48415244434f52453a204e6f206c6f636b6564204c502e00000000000000000081525060200191505060405180910390fd5b611f15612627565b600a60003373ffffffffffffffffffffffffffffffffffffffff1673ffffffffffffffffffffffffffffffffffffffff1681526020019081526020016000206001830381548110611f6257fe5b90600052602060002090600302016040518060600160405290816000820160009054906101000a900473ffffffffffffffffffffffffffffffffffffffff1673ffffffffffffffffffffffffffffffffffffffff1673ffffffffffffffffffffffffffffffffffffffff1681526020016001820154815260200160028201548152505090506001600401548160400151420311612067576040517f08c379a000000000000000000000000000000000000000000000000000000000815260040180806020018281038252601a8152602001807f48415244434f52453a204c50207374696c6c206c6f636b65642e00000000000081525060200191505060405180910390fd5b600a60003373ffffffffffffffffffffffffffffffffffffffff1673ffffffffffffffffffffffffffffffffffffffff1681526020019081526020016000208054806120af57fe5b6001900381819060005260206000209060030201600080820160006101000a81549073ffffffffffffffffffffffffffffffffffffffff02191690556001820160009055600282016000905550509055600060648260200151600160080154028161211657fe5b0490507f210f4c0509ea4db77fea0d7a392c49e2d0aaac2389909bc72db566b3c3537c243383602001514284604051808573ffffffffffffffffffffffffffffffffffffffff16815260200184815260200183815260200182815260200194505050505060405180910390a1600160020160009054906101000a900473ffffffffffffffffffffffffffffffffffffffff1673ffffffffffffffffffffffffffffffffffffffff1663a9059cbb600160070160009054906101000a900473ffffffffffffffffffffffffffffffffffffffff16836040518363ffffffff1660e01b8152600401808373ffffffffffffffffffffffffffffffffffffffff16815260200182815260200192505050602060405180830381600087803b15801561223d57600080fd5b505af1158015612251573d6000803e3d6000fd5b505050506040513d602081101561226757600080fd5b81019080805190602001909291905050506122cd576040517f08c379a000000000000000000000000000000000000000000000000000000000815260040180806020018281038252602f81526020018061265f602f913960400191505060405180910390fd5b600160020160009054906101000a900473ffffffffffffffffffffffffffffffffffffffff1673ffffffffffffffffffffffffffffffffffffffff1663a9059cbb8360000151838560200151036040518363ffffffff1660e01b8152600401808373ffffffffffffffffffffffffffffffffffffffff16815260200182815260200192505050602060405180830381600087803b15801561236d57600080fd5b505af1158015612381573d6000803e3d6000fd5b505050506040513d602081101561239757600080fd5b8101908080519060200190929190505050935050505090565b600a60205281600052604060002081815481106123c957fe5b9060005260206000209060030201600091509150508060000160009054906101000a900473ffffffffffffffffffffffffffffffffffffffff16908060010154908060020154905083565b61241c61261f565b73ffffffffffffffffffffffffffffffffffffffff1660008054906101000a900473ffffffffffffffffffffffffffffffffffffffff1673ffffffffffffffffffffffffffffffffffffffff16146124dc576040517f08c379a00000000000000000000000000000000000000000000000000000000081526004018080602001828103825260208152602001807f4f776e61626c653a2063616c6c6572206973206e6f7420746865206f776e657281525060200191505060405180910390fd5b600073ffffffffffffffffffffffffffffffffffffffff168173ffffffffffffffffffffffffffffffffffffffff161415612562576040517f08c379a000000000000000000000000000000000000000000000000000000000815260040180806020018281038252602681526020018061268e6026913960400191505060405180910390fd5b8073ffffffffffffffffffffffffffffffffffffffff1660008054906101000a900473ffffffffffffffffffffffffffffffffffffffff1673ffffffffffffffffffffffffffffffffffffffff167f8be0079c531659141344cd1fd0a4f28419497f9722a3daafe3b4186f6b6457e060405160405180910390a3806000806101000a81548173ffffffffffffffffffffffffffffffffffffffff021916908373ffffffffffffffffffffffffffffffffffffffff16021790555050565b600033905090565b6040518060600160405280600073ffffffffffffffffffffffffffffffffffffffff1681526020016000815260200160008152509056fe48617264436f72653a20646f6e6174696f6e207472616e73666572206661696c656420696e204c5020636c61696d2e4f776e61626c653a206e6577206f776e657220697320746865207a65726f206164647265737348415244434f52453a207472616e73666572477261624c50206661696c6564206f6e207472616e7366657248415244434f52453a207472616e73666572477261624c50206661696c6564206f6e204c5020707572636861736548415244434f52453a2065746820726571756972656420746f206d696e742048617264636f7265204c5048415244434f52453a20696e73756666696369656e742048617264436f726520696e204c69717569645661756c7448617264436f72653a20646f6e6174696f6e2073686172652025206265747765656e203020616e6420313030a2646970667358221220c28bed0af0518871820ec010362dcb43cd6822ad738c501170358a01bd678adb64736f6c634300060c0033",
  "immutableReferences": {},
  "source": "// SPDX-License-Identifier: MIT\npragma solidity ^0.6.12;\nimport \"@openzeppelin/contracts/access/Ownable.sol\";\nimport \"./facades/HardCoreLike.sol\";\nimport \"./facades/FeeDistributorLike.sol\";\nimport \"@uniswap/v2-periphery/contracts/interfaces/IUniswapV2Router02.sol\";\nimport \"@uniswap/v2-periphery/contracts/interfaces/IWETH.sol\";\nimport \"@uniswap/v2-core/contracts/interfaces/IUniswapV2Pair.sol\";\n\ncontract LiquidVault is Ownable {\n    /*\n        A user can hold multiple locked LP batches. Each batch takes 30 days to incubate\n    */\n    event LPQueued(\n        address holder,\n        uint256 amount,\n        uint256 eth,\n        uint256 hardCore,\n        uint256 timeStamp\n    );\n\n    event LPClaimed(\n        address holder,\n        uint256 amount,\n        uint256 timestamp,\n        uint256 exitfee\n    );\n\n    struct LPbatch {\n        address holder;\n        uint256 amount;\n        uint256 timestamp;\n    }\n\n    struct liquidVaultConfig {\n        address hardCore;\n        IUniswapV2Router02 uniswapRouter;\n        IUniswapV2Pair tokenPair;\n        FeeDistributorLike feeDistributor;\n        uint256 stakeDuration;\n        address self;\n        address weth;\n        address donation;\n        uint256 donationShare; //0-100\n    }\n\n    bool private locked;\n    modifier lock {\n        require(!locked, \"HARDCORE: reentrancy violation\");\n        locked = true;\n        _;\n        locked = false;\n    }\n\n    liquidVaultConfig public config;\n    //Front end can loop through this and inspect if enough time has passed\n    mapping(address => LPbatch[]) public LockedLP;\n\n    function seed(\n        uint256 duration,\n        address hcore,\n        address feeDistributor,\n        address donation,\n        uint256 donationShare\n    ) public {\n        require(\n            donationShare <= 100,\n            \"HardCore: donation share % between 0 and 100\"\n        );\n        config.stakeDuration = duration * 1 days;\n        config.hardCore = hcore;\n        config.uniswapRouter = IUniswapV2Router02(\n            HardCoreLike(hcore).uniswapRouter()\n        );\n        config.tokenPair = IUniswapV2Pair(\n            HardCoreLike(hcore).tokenUniswapPair()\n        );\n        config.feeDistributor = FeeDistributorLike(feeDistributor);\n        config.weth = config.uniswapRouter.WETH();\n        config.self = address(this);\n        config.donation = donation;\n        config.donationShare = donationShare;\n    }\n\n    function purchaseLPFor(address beneficiary) public payable lock {\n         config.feeDistributor.distributeFees();\n        require(msg.value > 0, \"HARDCORE: eth required to mint Hardcore LP\");\n        (address token0, ) = config.hardCore < config.weth\n            ? (config.hardCore, config.weth)\n            : (config.weth, config.hardCore);\n        (uint256 reserve1, uint256 reserve2, ) = config.tokenPair.getReserves();\n        uint256 hardCoreRequired = 0;\n\n        if (config.tokenPair.totalSupply() == 0) {\n            hardCoreRequired = HardCoreLike(config.hardCore).balanceOf(\n                address(this)\n            );\n        } else if (token0 == config.hardCore) {\n            hardCoreRequired = config.uniswapRouter.quote(\n                msg.value,\n                reserve2,\n                reserve1\n            );\n        } else {\n            hardCoreRequired = config.uniswapRouter.quote(\n                msg.value,\n                reserve1,\n                reserve2\n            );\n        }\n        uint256 balance = HardCoreLike(config.hardCore).balanceOf(config.self);\n        require(\n            balance >= hardCoreRequired,\n            \"HARDCORE: insufficient HardCore in LiquidVault\"\n        );\n\n        IWETH(config.weth).deposit{value: msg.value}();\n        address tokenPairAddress = address(config.tokenPair);\n        IWETH(config.weth).transfer(tokenPairAddress, msg.value);\n        HardCoreLike(config.hardCore).transfer(\n            tokenPairAddress,\n            hardCoreRequired\n        );\n        uint256 liquidityCreated = config.tokenPair.mint(config.self);\n\n        LockedLP[beneficiary].push(\n            LPbatch({\n                holder: beneficiary,\n                amount: liquidityCreated,\n                timestamp: block.timestamp\n            })\n        );\n\n        emit LPQueued(\n            beneficiary,\n            liquidityCreated,\n            msg.value,\n            hardCoreRequired,\n            block.timestamp\n        );\n    }\n\n    //send eth to match with HCORE tokens in LiquidVault\n    function purchaseLP() public payable {\n       this.purchaseLPFor{value:msg.value}(msg.sender);\n    }\n\n    //pops latest LP if older than period\n    function claimLP() public returns (bool) {\n        uint256 length = LockedLP[msg.sender].length;\n        require(length > 0, \"HARDCORE: No locked LP.\");\n        LPbatch memory batch = LockedLP[msg.sender][length - 1];\n        require(\n            block.timestamp - batch.timestamp > config.stakeDuration,\n            \"HARDCORE: LP still locked.\"\n        );\n        LockedLP[msg.sender].pop();\n        uint256 donation = (config.donationShare * batch.amount) / 100;\n        emit LPClaimed(msg.sender, batch.amount, block.timestamp, donation);\n        require(\n            config.tokenPair.transfer(config.donation, donation),\n            \"HardCore: donation transfer failed in LP claim.\"\n        );\n        return config.tokenPair.transfer(batch.holder, batch.amount - donation);\n    }\n\n    //allow user to immediately claim the LP from their transaction fee. Ether forwarded depends on user\n    function transferGrabLP(address recipient, uint256 value)\n        public\n        payable\n        returns (bool)\n    {\n        (bool transferSuccess, ) = config.hardCore.delegatecall(\n            abi.encodeWithSignature(\"transfer(address,uint256)\", recipient, value)\n        );\n        //call(abi.encodeWithSignature(\"transfer(address,uint256)\", recipient, value))\n\n        require(transferSuccess, \"HARDCORE: transferGrabLP failed on transfer\");\n        (bool lpPurchaseSuccess, ) = config.self.delegatecall(\n            abi.encodePacked(bytes4(keccak256(\"purchaseLP()\")))\n        );\n        require(\n            lpPurchaseSuccess,\n            \"HARDCORE: transferGrabLP failed on LP purchase\"\n        );\n        return true;\n    }\n\n    function lockedLPLength(address holder) public view returns (uint256) {\n        return LockedLP[holder].length;\n    }\n\n    function getLockedLP(address holder, uint256 position)\n        public\n        view\n        returns (\n            address,\n            uint256,\n            uint256\n        )\n    {\n        LPbatch memory batch = LockedLP[holder][position];\n        return (batch.holder, batch.amount, batch.timestamp);\n    }\n}\n",
  "sourcePath": "/home/justin/freelancing/degen/hardcore/contracts/LiquidVault.sol",
  "compiler": {
    "name": "solc",
    "version": "0.6.12+commit.27d51765.Emscripten.clang"
  },
  "schemaVersion": "3.1.0",
  "updatedAt": "2020-10-21T06:42:50.510Z",
  "devdoc": {
    "kind": "dev",
    "methods": {
      "owner()": {
        "details": "Returns the address of the current owner."
      },
      "renounceOwnership()": {
        "details": "Leaves the contract without owner. It will not be possible to call `onlyOwner` functions anymore. Can only be called by the current owner. NOTE: Renouncing ownership will leave the contract without an owner, thereby removing any functionality that is only available to the owner."
      },
      "transferOwnership(address)": {
        "details": "Transfers ownership of the contract to a new account (`newOwner`). Can only be called by the current owner."
      }
    },
    "version": 1
  },
  "userdoc": {
    "kind": "user",
    "methods": {},
    "version": 1
  }
}