{
  "contractName": "UniswapV2Router02",
  "abi": [
    {
      "inputs": [
        {
          "internalType": "address",
          "name": "_factory",
          "type": "address"
        },
        {
          "internalType": "address",
          "name": "_WETH",
          "type": "address"
        }
      ],
      "stateMutability": "nonpayable",
      "type": "constructor"
    },
    {
      "inputs": [],
      "name": "WETH",
      "outputs": [
        {
          "internalType": "address",
          "name": "",
          "type": "address"
        }
      ],
      "stateMutability": "view",
      "type": "function"
    },
    {
      "inputs": [],
      "name": "factory",
      "outputs": [
        {
          "internalType": "address",
          "name": "",
          "type": "address"
        }
      ],
      "stateMutability": "view",
      "type": "function"
    },
    {
      "stateMutability": "payable",
      "type": "receive"
    },
    {
      "inputs": [
        {
          "internalType": "uint256",
          "name": "amountA",
          "type": "uint256"
        },
        {
          "internalType": "uint256",
          "name": "reserveA",
          "type": "uint256"
        },
        {
          "internalType": "uint256",
          "name": "reserveB",
          "type": "uint256"
        }
      ],
      "name": "quote",
      "outputs": [
        {
          "internalType": "uint256",
          "name": "amountB",
          "type": "uint256"
        }
      ],
      "stateMutability": "pure",
      "type": "function"
    },
    {
      "inputs": [
        {
          "internalType": "uint256",
          "name": "amountIn",
          "type": "uint256"
        },
        {
          "internalType": "uint256",
          "name": "reserveIn",
          "type": "uint256"
        },
        {
          "internalType": "uint256",
          "name": "reserveOut",
          "type": "uint256"
        }
      ],
      "name": "getAmountOut",
      "outputs": [
        {
          "internalType": "uint256",
          "name": "amountOut",
          "type": "uint256"
        }
      ],
      "stateMutability": "pure",
      "type": "function"
    },
    {
      "inputs": [
        {
          "internalType": "uint256",
          "name": "amountOut",
          "type": "uint256"
        },
        {
          "internalType": "uint256",
          "name": "reserveIn",
          "type": "uint256"
        },
        {
          "internalType": "uint256",
          "name": "reserveOut",
          "type": "uint256"
        }
      ],
      "name": "getAmountIn",
      "outputs": [
        {
          "internalType": "uint256",
          "name": "amountIn",
          "type": "uint256"
        }
      ],
      "stateMutability": "pure",
      "type": "function"
    },
    {
      "inputs": [
        {
          "internalType": "uint256",
          "name": "amountIn",
          "type": "uint256"
        },
        {
          "internalType": "address[]",
          "name": "path",
          "type": "address[]"
        }
      ],
      "name": "getAmountsOut",
      "outputs": [
        {
          "internalType": "uint256[]",
          "name": "amounts",
          "type": "uint256[]"
        }
      ],
      "stateMutability": "view",
      "type": "function"
    },
    {
      "inputs": [
        {
          "internalType": "uint256",
          "name": "amountOut",
          "type": "uint256"
        },
        {
          "internalType": "address[]",
          "name": "path",
          "type": "address[]"
        }
      ],
      "name": "getAmountsIn",
      "outputs": [
        {
          "internalType": "uint256[]",
          "name": "amounts",
          "type": "uint256[]"
        }
      ],
      "stateMutability": "view",
      "type": "function"
    }
  ],
  "bytecode": "0x60c060405234801561001057600080fd5b506040516112d93803806112d98339818101604052604081101561003357600080fd5b8101908080519060200190929190805190602001909291905050508173ffffffffffffffffffffffffffffffffffffffff1660808173ffffffffffffffffffffffffffffffffffffffff1660601b815250508073ffffffffffffffffffffffffffffffffffffffff1660a08173ffffffffffffffffffffffffffffffffffffffff1660601b81525050505060805160601c60a05160601c6111e46100f560003980606b528061051b5250806104d55280610555528061057e52506111e46000f3fe6080604052600436106100645760003560e01c8063054d50d4146100c55780631f00ca741461012857806385f8c2591461024c578063ad5c4648146102af578063ad615dec146102f0578063c45a015514610353578063d06ca61f14610394576100c0565b366100c0577f000000000000000000000000000000000000000000000000000000000000000073ffffffffffffffffffffffffffffffffffffffff163373ffffffffffffffffffffffffffffffffffffffff16146100be57fe5b005b600080fd5b3480156100d157600080fd5b50610112600480360360608110156100e857600080fd5b810190808035906020019092919080359060200190929190803590602001909291905050506104b8565b6040518082815260200191505060405180910390f35b34801561013457600080fd5b506101f56004803603604081101561014b57600080fd5b81019080803590602001909291908035906020019064010000000081111561017257600080fd5b82018360208201111561018457600080fd5b803590602001918460208302840111640100000000831117156101a657600080fd5b919080806020026020016040519081016040528093929190818152602001838360200280828437600081840152601f19601f8201169050808301925050505050505091929192905050506104ce565b6040518080602001828103825283818151815260200191508051906020019060200280838360005b8381101561023857808201518184015260208101905061021d565b505050509050019250505060405180910390f35b34801561025857600080fd5b506102996004803603606081101561026f57600080fd5b81019080803590602001909291908035906020019092919080359060200190929190505050610503565b6040518082815260200191505060405180910390f35b3480156102bb57600080fd5b506102c4610519565b604051808273ffffffffffffffffffffffffffffffffffffffff16815260200191505060405180910390f35b3480156102fc57600080fd5b5061033d6004803603606081101561031357600080fd5b8101908080359060200190929190803590602001909291908035906020019092919050505061053d565b6040518082815260200191505060405180910390f35b34801561035f57600080fd5b50610368610553565b604051808273ffffffffffffffffffffffffffffffffffffffff16815260200191505060405180910390f35b3480156103a057600080fd5b50610461600480360360408110156103b757600080fd5b8101908080359060200190929190803590602001906401000000008111156103de57600080fd5b8201836020820111156103f057600080fd5b8035906020019184602083028401116401000000008311171561041257600080fd5b919080806020026020016040519081016040528093929190818152602001838360200280828437600081840152601f19601f820116905080830192505050505050509192919290505050610577565b6040518080602001828103825283818151815260200191508051906020019060200280838360005b838110156104a4578082015181840152602081019050610489565b505050509050019250505060405180910390f35b60006104c58484846105ac565b90509392505050565b60606104fb7f000000000000000000000000000000000000000000000000000000000000000084846106dc565b905092915050565b600061051084848461085c565b90509392505050565b7f000000000000000000000000000000000000000000000000000000000000000081565b600061054a848484610999565b90509392505050565b7f000000000000000000000000000000000000000000000000000000000000000081565b60606105a47f00000000000000000000000000000000000000000000000000000000000000008484610a7d565b905092915050565b6000808411610606576040517f08c379a000000000000000000000000000000000000000000000000000000000815260040180806020018281038252602b815260200180611184602b913960400191505060405180910390fd5b6000831180156106165750600082115b61066b576040517f08c379a00000000000000000000000000000000000000000000000000000000081526004018080602001828103825260288152602001806111376028913960400191505060405180910390fd5b60006106826103e586610bf590919063ffffffff16565b905060006106998483610bf590919063ffffffff16565b905060006106c4836106b66103e889610bf590919063ffffffff16565b610c8a90919063ffffffff16565b90508082816106cf57fe5b0493505050509392505050565b6060600282511015610756576040517f08c379a000000000000000000000000000000000000000000000000000000000815260040180806020018281038252601e8152602001807f556e697377617056324c6962726172793a20494e56414c49445f50415448000081525060200191505060405180910390fd5b815167ffffffffffffffff8111801561076e57600080fd5b5060405190808252806020026020018201604052801561079d5781602001602082028036833780820191505090505b50905082816001835103815181106107b157fe5b6020026020010181815250506000600183510390505b600081111561085457600080610807878660018603815181106107e657fe5b60200260200101518786815181106107fa57fe5b6020026020010151610d0d565b9150915061082984848151811061081a57fe5b6020026020010151838361085c565b84600185038151811061083857fe5b60200260200101818152505050508080600190039150506107c7565b509392505050565b60008084116108b6576040517f08c379a000000000000000000000000000000000000000000000000000000000815260040180806020018281038252602c8152602001806110e6602c913960400191505060405180910390fd5b6000831180156108c65750600082115b61091b576040517f08c379a00000000000000000000000000000000000000000000000000000000081526004018080602001828103825260288152602001806111376028913960400191505060405180910390fd5b60006109446103e86109368787610bf590919063ffffffff16565b610bf590919063ffffffff16565b9050600061096f6103e56109618887610eeb90919063ffffffff16565b610bf590919063ffffffff16565b905061098e600182848161097f57fe5b04610c8a90919063ffffffff16565b925050509392505050565b60008084116109f3576040517f08c379a000000000000000000000000000000000000000000000000000000000815260040180806020018281038252602581526020018061115f6025913960400191505060405180910390fd5b600083118015610a035750600082115b610a58576040517f08c379a00000000000000000000000000000000000000000000000000000000081526004018080602001828103825260288152602001806111376028913960400191505060405180910390fd5b82610a6c8386610bf590919063ffffffff16565b81610a7357fe5b0490509392505050565b6060600282511015610af7576040517f08c379a000000000000000000000000000000000000000000000000000000000815260040180806020018281038252601e8152602001807f556e697377617056324c6962726172793a20494e56414c49445f50415448000081525060200191505060405180910390fd5b815167ffffffffffffffff81118015610b0f57600080fd5b50604051908082528060200260200182016040528015610b3e5781602001602082028036833780820191505090505b5090508281600081518110610b4f57fe5b60200260200101818152505060005b6001835103811015610bed57600080610ba187868581518110610b7d57fe5b6020026020010151876001870181518110610b9457fe5b6020026020010151610d0d565b91509150610bc3848481518110610bb457fe5b602002602001015183836105ac565b846001850181518110610bd257fe5b60200260200101818152505050508080600101915050610b5e565b509392505050565b600080821480610c125750828283850292508281610c0f57fe5b04145b610c84576040517f08c379a00000000000000000000000000000000000000000000000000000000081526004018080602001828103825260148152602001807f64732d6d6174682d6d756c2d6f766572666c6f7700000000000000000000000081525060200191505060405180910390fd5b92915050565b6000828284019150811015610d07576040517f08c379a00000000000000000000000000000000000000000000000000000000081526004018080602001828103825260148152602001807f64732d6d6174682d6164642d6f766572666c6f7700000000000000000000000081525060200191505060405180910390fd5b92915050565b6000806000610d1c8585610f6e565b5090506000808773ffffffffffffffffffffffffffffffffffffffff1663e6a4390588886040518363ffffffff1660e01b8152600401808373ffffffffffffffffffffffffffffffffffffffff1681526020018273ffffffffffffffffffffffffffffffffffffffff1681526020019250505060206040518083038186803b158015610da757600080fd5b505afa158015610dbb573d6000803e3d6000fd5b505050506040513d6020811015610dd157600080fd5b810190808051906020019092919050505073ffffffffffffffffffffffffffffffffffffffff16630902f1ac6040518163ffffffff1660e01b815260040160606040518083038186803b158015610e2757600080fd5b505afa158015610e3b573d6000803e3d6000fd5b505050506040513d6060811015610e5157600080fd5b81019080805190602001909291908051906020019092919080519060200190929190505050506dffffffffffffffffffffffffffff1691506dffffffffffffffffffffffffffff1691508273ffffffffffffffffffffffffffffffffffffffff168773ffffffffffffffffffffffffffffffffffffffff1614610ed5578082610ed8565b81815b8095508196505050505050935093915050565b6000828284039150811115610f68576040517f08c379a00000000000000000000000000000000000000000000000000000000081526004018080602001828103825260158152602001807f64732d6d6174682d7375622d756e646572666c6f77000000000000000000000081525060200191505060405180910390fd5b92915050565b6000808273ffffffffffffffffffffffffffffffffffffffff168473ffffffffffffffffffffffffffffffffffffffff161415610ff6576040517f08c379a00000000000000000000000000000000000000000000000000000000081526004018080602001828103825260258152602001806111126025913960400191505060405180910390fd5b8273ffffffffffffffffffffffffffffffffffffffff168473ffffffffffffffffffffffffffffffffffffffff1610611030578284611033565b83835b8092508193505050600073ffffffffffffffffffffffffffffffffffffffff168273ffffffffffffffffffffffffffffffffffffffff1614156110de576040517f08c379a000000000000000000000000000000000000000000000000000000000815260040180806020018281038252601e8152602001807f556e697377617056324c6962726172793a205a45524f5f41444452455353000081525060200191505060405180910390fd5b925092905056fe556e697377617056324c6962726172793a20494e53554646494349454e545f4f55545055545f414d4f554e54556e697377617056324c6962726172793a204944454e544943414c5f414444524553534553556e697377617056324c6962726172793a20494e53554646494349454e545f4c4951554944495459556e697377617056324c6962726172793a20494e53554646494349454e545f414d4f554e54556e697377617056324c6962726172793a20494e53554646494349454e545f494e5055545f414d4f554e54a2646970667358221220559970376551e4fc427cfc9f2c1bf89d220876277b325fb2d4453786c5a6d4f564736f6c634300060c0033",
  "immutableReferences": {
    "3642": [
      {
        "length": 32,
        "start": 1237
      },
      {
        "length": 32,
        "start": 1365
      },
      {
        "length": 32,
        "start": 1406
      }
    ],
    "3644": [
      {
        "length": 32,
        "start": 107
      },
      {
        "length": 32,
        "start": 1307
      }
    ]
  },
  "source": "pragma solidity ^0.6.12;\nimport './interfaces/IUniswapV2Router02.sol';\n\nimport './libraries/UniswapV2Library.sol';\nimport './libraries/SafeMath.sol';\nimport './interfaces/IERC20.sol';\nimport './interfaces/IWETH.sol';\nimport '@uniswap/v2-core/contracts/interfaces/IUniswapV2Factory.sol';\nimport '@uniswap/lib/contracts/libraries/TransferHelper.sol';\n\ncontract UniswapV2Router02  {\n    using SafeMathUniswap for uint;\n\n    address public immutable  factory;\n    address public immutable  WETH;\n\n    modifier ensure(uint deadline) {\n        require(deadline >= block.timestamp, 'UniswapV2Router: EXPIRED');\n        _;\n    }\n\n    constructor(address _factory, address _WETH) public {\n        factory = _factory;\n        WETH = _WETH;\n    }\n\n    receive() external payable {\n        assert(msg.sender == WETH); // only accept ETH via fallback from the WETH contract\n    }\n\n\n    // **** LIBRARY FUNCTIONS ****\n    function quote(uint amountA, uint reserveA, uint reserveB) public pure virtual  returns (uint amountB) {\n        return UniswapV2Library.quote(amountA, reserveA, reserveB);\n    }\n\n    function getAmountOut(uint amountIn, uint reserveIn, uint reserveOut)\n        public\n        pure\n        virtual\n        \n        returns (uint amountOut)\n    {\n        return UniswapV2Library.getAmountOut(amountIn, reserveIn, reserveOut);\n    }\n\n    function getAmountIn(uint amountOut, uint reserveIn, uint reserveOut)\n        public\n        pure\n        virtual\n        \n        returns (uint amountIn)\n    {\n        return UniswapV2Library.getAmountIn(amountOut, reserveIn, reserveOut);\n    }\n\n    function getAmountsOut(uint amountIn, address[] memory path)\n        public\n        view\n        virtual\n        \n        returns (uint[] memory amounts)\n    {\n        return UniswapV2Library.getAmountsOut(factory, amountIn, path);\n    }\n\n    function getAmountsIn(uint amountOut, address[] memory path)\n        public\n        view\n        virtual\n        \n        returns (uint[] memory amounts)\n    {\n        return UniswapV2Library.getAmountsIn(factory, amountOut, path);\n    }\n}",
  "sourcePath": "/home/justin/freelancing/degen/hardcore/contracts/testing/uniswapv2/UniswapV2Router02.sol",
  "compiler": {
    "name": "solc",
    "version": "0.6.12+commit.27d51765.Emscripten.clang"
  },
  "schemaVersion": "3.1.0",
  "updatedAt": "2020-10-21T06:42:50.551Z",
  "devdoc": {
    "kind": "dev",
    "methods": {},
    "version": 1
  },
  "userdoc": {
    "kind": "user",
    "methods": {},
    "version": 1
  }
}